{"contracts/VeritasSBT.sol":{"VeritasSBT":{"abi":[{"inputs":[],"stateMutability":"nonpayable","type":"constructor"},{"anonymous":false,"inputs":[{"indexed":true,"internalType":"address","name":"owner","type":"address"},{"indexed":true,"internalType":"address","name":"approved","type":"address"},{"indexed":true,"internalType":"uint256","name":"tokenId","type":"uint256"}],"name":"Approval","type":"event"},{"anonymous":false,"inputs":[{"indexed":true,"internalType":"address","name":"owner","type":"address"},{"indexed":true,"internalType":"address","name":"operator","type":"address"},{"indexed":false,"internalType":"bool","name":"approved","type":"bool"}],"name":"ApprovalForAll","type":"event"},{"anonymous":false,"inputs":[{"indexed":false,"internalType":"uint256","name":"_fromTokenId","type":"uint256"},{"indexed":false,"internalType":"uint256","name":"_toTokenId","type":"uint256"}],"name":"BatchMetadataUpdate","type":"event"},{"anonymous":false,"inputs":[{"indexed":true,"internalType":"uint256","name":"tokenId","type":"uint256"},{"indexed":true,"internalType":"address","name":"recipient","type":"address"},{"indexed":true,"internalType":"address","name":"issuer","type":"address"},{"indexed":false,"internalType":"string","name":"credentialType","type":"string"},{"indexed":false,"internalType":"string","name":"issuerName","type":"string"},{"indexed":false,"internalType":"uint256","name":"timestamp","type":"uint256"},{"indexed":false,"internalType":"bytes32","name":"metadataHash","type":"bytes32"},{"indexed":false,"internalType":"string","name":"metadataURI","type":"string"}],"name":"CredentialIssued","type":"event"},{"anonymous":false,"inputs":[{"indexed":true,"internalType":"uint256","name":"tokenId","type":"uint256"},{"indexed":false,"internalType":"string","name":"reason","type":"string"}],"name":"CredentialRevoked","type":"event"},{"anonymous":false,"inputs":[{"indexed":true,"internalType":"address","name":"issuer","type":"address"},{"indexed":false,"internalType":"bool","name":"status","type":"bool"}],"name":"IssuerWhitelisted","type":"event"},{"anonymous":false,"inputs":[{"indexed":false,"internalType":"uint256","name":"_tokenId","type":"uint256"}],"name":"MetadataUpdate","type":"event"},{"anonymous":false,"inputs":[{"indexed":true,"internalType":"uint256","name":"tokenId","type":"uint256"},{"indexed":false,"internalType":"string","name":"newMetadataURI","type":"string"}],"name":"MetadataUpdated","type":"event"},{"anonymous":false,"inputs":[{"indexed":true,"internalType":"address","name":"previousOwner","type":"address"},{"indexed":true,"internalType":"address","name":"newOwner","type":"address"}],"name":"OwnershipTransferred","type":"event"},{"anonymous":false,"inputs":[{"indexed":true,"internalType":"address","name":"from","type":"address"},{"indexed":true,"internalType":"address","name":"to","type":"address"},{"indexed":true,"internalType":"uint256","name":"tokenId","type":"uint256"}],"name":"Transfer","type":"event"},{"inputs":[{"internalType":"address","name":"","type":"address"},{"internalType":"uint256","name":"","type":"uint256"}],"name":"approve","outputs":[],"stateMutability":"pure","type":"function"},{"inputs":[{"internalType":"address","name":"owner","type":"address"}],"name":"balanceOf","outputs":[{"internalType":"uint256","name":"","type":"uint256"}],"stateMutability":"view","type":"function"},{"inputs":[{"internalType":"string","name":"","type":"string"}],"name":"credentialTypeCount","outputs":[{"internalType":"uint256","name":"","type":"uint256"}],"stateMutability":"view","type":"function"},{"inputs":[{"internalType":"uint256","name":"","type":"uint256"}],"name":"credentials","outputs":[{"internalType":"string","name":"credentialType","type":"string"},{"internalType":"string","name":"issuerName","type":"string"},{"internalType":"uint256","name":"timestamp","type":"uint256"},{"internalType":"bytes32","name":"metadataHash","type":"bytes32"},{"internalType":"string","name":"metadataURI","type":"string"},{"internalType":"bool","name":"isValid","type":"bool"}],"stateMutability":"view","type":"function"},{"inputs":[{"internalType":"uint256","name":"tokenId","type":"uint256"}],"name":"getApproved","outputs":[{"internalType":"address","name":"","type":"address"}],"stateMutability":"view","type":"function"},{"inputs":[{"internalType":"uint256","name":"tokenId","type":"uint256"}],"name":"getCredential","outputs":[{"components":[{"internalType":"string","name":"credentialType","type":"string"},{"internalType":"string","name":"issuerName","type":"string"},{"internalType":"uint256","name":"timestamp","type":"uint256"},{"internalType":"bytes32","name":"metadataHash","type":"bytes32"},{"internalType":"string","name":"metadataURI","type":"string"},{"internalType":"bool","name":"isValid","type":"bool"}],"internalType":"struct VeritasSBT.Credential","name":"","type":"tuple"}],"stateMutability":"view","type":"function"},{"inputs":[{"internalType":"string","name":"credentialType","type":"string"}],"name":"getCredentialTypeCount","outputs":[{"internalType":"uint256","name":"","type":"uint256"}],"stateMutability":"view","type":"function"},{"inputs":[{"internalType":"address","name":"user","type":"address"}],"name":"getUserCredentials","outputs":[{"internalType":"uint256[]","name":"","type":"uint256[]"}],"stateMutability":"view","type":"function"},{"inputs":[{"internalType":"address","name":"owner","type":"address"},{"internalType":"address","name":"operator","type":"address"}],"name":"isApprovedForAll","outputs":[{"internalType":"bool","name":"","type":"bool"}],"stateMutability":"view","type":"function"},{"inputs":[{"internalType":"address","name":"recipient","type":"address"},{"internalType":"string","name":"credentialType","type":"string"},{"internalType":"string","name":"issuerName","type":"string"},{"internalType":"bytes32","name":"metadataHash","type":"bytes32"},{"internalType":"string","name":"metadataURI","type":"string"}],"name":"mintCredential","outputs":[{"internalType":"uint256","name":"","type":"uint256"}],"stateMutability":"nonpayable","type":"function"},{"inputs":[],"name":"name","outputs":[{"internalType":"string","name":"","type":"string"}],"stateMutability":"view","type":"function"},{"inputs":[],"name":"owner","outputs":[{"internalType":"address","name":"","type":"address"}],"stateMutability":"view","type":"function"},{"inputs":[{"internalType":"uint256","name":"tokenId","type":"uint256"}],"name":"ownerOf","outputs":[{"internalType":"address","name":"","type":"address"}],"stateMutability":"view","type":"function"},{"inputs":[],"name":"renounceOwnership","outputs":[],"stateMutability":"nonpayable","type":"function"},{"inputs":[{"internalType":"uint256","name":"tokenId","type":"uint256"},{"internalType":"string","name":"reason","type":"string"}],"name":"revokeCredential","outputs":[],"stateMutability":"nonpayable","type":"function"},{"inputs":[{"internalType":"address","name":"","type":"address"},{"internalType":"address","name":"","type":"address"},{"internalType":"uint256","name":"","type":"uint256"}],"name":"safeTransferFrom","outputs":[],"stateMutability":"pure","type":"function"},{"inputs":[{"internalType":"address","name":"","type":"address"},{"internalType":"address","name":"","type":"address"},{"internalType":"uint256","name":"","type":"uint256"},{"internalType":"bytes","name":"","type":"bytes"}],"name":"safeTransferFrom","outputs":[],"stateMutability":"pure","type":"function"},{"inputs":[{"internalType":"address","name":"","type":"address"},{"internalType":"bool","name":"","type":"bool"}],"name":"setApprovalForAll","outputs":[],"stateMutability":"pure","type":"function"},{"inputs":[{"internalType":"address","name":"issuer","type":"address"},{"internalType":"bool","name":"status","type":"bool"}],"name":"setIssuerWhitelist","outputs":[],"stateMutability":"nonpayable","type":"function"},{"inputs":[{"internalType":"bytes4","name":"interfaceId","type":"bytes4"}],"name":"supportsInterface","outputs":[{"internalType":"bool","name":"","type":"bool"}],"stateMutability":"view","type":"function"},{"inputs":[],"name":"symbol","outputs":[{"internalType":"string","name":"","type":"string"}],"stateMutability":"view","type":"function"},{"inputs":[{"internalType":"uint256","name":"tokenId","type":"uint256"}],"name":"tokenURI","outputs":[{"internalType":"string","name":"","type":"string"}],"stateMutability":"view","type":"function"},{"inputs":[],"name":"totalSupply","outputs":[{"internalType":"uint256","name":"","type":"uint256"}],"stateMutability":"view","type":"function"},{"inputs":[{"internalType":"address","name":"","type":"address"},{"internalType":"address","name":"","type":"address"},{"internalType":"uint256","name":"","type":"uint256"}],"name":"transferFrom","outputs":[],"stateMutability":"pure","type":"function"},{"inputs":[{"internalType":"address","name":"newOwner","type":"address"}],"name":"transferOwnership","outputs":[],"stateMutability":"nonpayable","type":"function"},{"inputs":[{"internalType":"uint256","name":"tokenId","type":"uint256"},{"internalType":"string","name":"newMetadataURI","type":"string"}],"name":"updateMetadataURI","outputs":[],"stateMutability":"nonpayable","type":"function"},{"inputs":[{"internalType":"address","name":"","type":"address"},{"internalType":"uint256","name":"","type":"uint256"}],"name":"userCredentials","outputs":[{"internalType":"uint256","name":"","type":"uint256"}],"stateMutability":"view","type":"function"},{"inputs":[{"internalType":"address","name":"","type":"address"}],"name":"whitelistedIssuers","outputs":[{"internalType":"bool","name":"","type":"bool"}],"stateMutability":"view","type":"function"}],"evm":{"bytecode":{"linkReferences":{},"object":"60803462000371576001600160401b0390604090808201838111828210176200035b578252601781526020917f5665726974617320536f756c626f756e6420546f6b656e00000000000000000083830152805193818501858110828211176200035b57825260048552631594d09560e21b8486015282518181116200035b576000948554916001958684811c9416801562000350575b838510146200033c578190601f94858111620002e9575b5083908583116001146200028557899262000279575b5050600019600383901b1c191690861b1786555b8651928311620002655784548581811c911680156200025a575b828210146200024657828111620001fe575b50809183116001146200019557508495829394959262000189575b5050600019600383901b1c191690831b1782555b60078054336001600160a01b03198216811790925591519390916001600160a01b0316907f8be0079c531659141344cd1fd0a4f28419497f9722a3daafe3b4186f6b6457e09080a3600855611e109081620003778239f35b0151905038806200011d565b90601f198316968587528287209287905b898210620001e65750508386979896959610620001cc575b505050811b01825562000131565b015160001960f88460031b161c19169055388080620001be565b808885968294968601518155019501930190620001a6565b8587528187208380860160051c8201928487106200023c575b0160051c019086905b8281106200023057505062000102565b88815501869062000220565b9250819262000217565b634e487b7160e01b87526022600452602487fd5b90607f1690620000f0565b634e487b7160e01b86526041600452602486fd5b015190503880620000c2565b898052848a208994509190601f1984168b5b87828210620002d25750508411620002b8575b505050811b018655620000d6565b015160001960f88460031b161c19169055388080620002aa565b8385015186558c9790950194938401930162000297565b9091508880528389208580850160051c82019286861062000332575b918a91869594930160051c01915b82811062000323575050620000ac565b8b81558594508a910162000313565b9250819262000305565b634e487b7160e01b88526022600452602488fd5b93607f169362000095565b634e487b7160e01b600052604160045260246000fd5b600080fdfe608080604052600436101561001357600080fd5b60003560e01c90816301ffc9a7146116f35750806306fdde0314611650578063081812fc146115f9578063095ea7b31461158257806318160ddd1461156457806323b872dd14610d155780632672a35914610d1a57806342842e0e14610d155780636352211e14610cd657806370a0823114610c3f578063715018a614610be25780638da5cb5b14610bb95780638dd18d2d14610a7d5780638fe86b3f146108cc5780639364ace914610874578063957a32051461077957806395d89b411461069a578063a22cb4651461062d578063b88d4fde146105d4578063b9565fbd14610425578063c76d291914610520578063c87b56dd14610481578063c9174b1f14610425578063d61c0e78146103e6578063e0574e3f1461033f578063e985e9c5146102e9578063f1880733146102215763f2fde38b1461015357600080fd5b3461021c57602036600319011261021c5761016c6117c0565b610174611a2c565b6001600160a01b039081169081156101c857600754826bffffffffffffffffffffffff60a01b821617600755167f8be0079c531659141344cd1fd0a4f28419497f9722a3daafe3b4186f6b6457e0600080a3005b60405162461bcd60e51b815260206004820152602660248201527f4f776e61626c653a206e6577206f776e657220697320746865207a65726f206160448201526564647265737360d01b6064820152608490fd5b600080fd5b3461021c5761022f3661191d565b90610238611a2c565b6001600160a01b03169081156102995760207f01fe38add9c87023405f4f0be0cddf72b01de35f71327638bbe7e31eb40d24689183600052600b825261028e8160406000209060ff801983541691151516179055565b6040519015158152a2005b60405162461bcd60e51b815260206004820152602260248201527f566572697461735342543a20496e76616c696420697373756572206164647265604482015261737360f01b6064820152608490fd5b3461021c57604036600319011261021c576103026117c0565b61030a6117d6565b9060018060a01b03809116600052600560205260406000209116600052602052602060ff604060002054166040519015158152f35b3461021c57602036600319011261021c57600435600052600a6020526103b4604060002061036c81611986565b906103da61037c60018301611986565b9160028101549060038101546103c260ff600561039b60048601611986565b940154169560405198899860c08a5260c08a019061179b565b9088820360208a015261179b565b9260408701526060860152848203608086015261179b565b90151560a08301520390f35b3461021c57602036600319011261021c576001600160a01b036104076117c0565b16600052600b602052602060ff604060002054166040519015158152f35b3461021c57602036600319011261021c576004356001600160401b03811161021c5761046e602061045b819336906004016118a2565b8160405193828580945193849201611778565b8101600d81520301902054604051908152f35b3461021c57602036600319011261021c576004356000818152600260205260409020546104b8906001600160a01b03161515611a84565b60005260066020526104cd6040600020611986565b60405190602082018281106001600160401b0382111761050a57610506926000916040525260405191829160208352602083019061179b565b0390f35b634e487b7160e01b600052604160045260246000fd5b3461021c5760208060031936011261021c576001600160a01b036105426117c0565b16600052600c8152604060002060405190818382549182815201908192600052846000209060005b868282106105c05786866105808288038361183b565b604051928392818401908285525180915260408401929160005b8281106105a957505050500390f35b83518552869550938101939281019260010161059a565b83548552909301926001928301920161056a565b3461021c57608036600319011261021c576105ed6117c0565b506105f66117d6565b506064356001600160401b03811161021c573660238201121561021c5761062790369060248160040135910161185c565b50611d7a565b3461021c5761063b3661191d565b505060405162461bcd60e51b815260206004820152602f60248201527f566572697461735342543a20536f756c626f756e6420746f6b656e732063616e60448201526e1b9bdd08189948185c1c1c9bdd9959608a1b6064820152608490fd5b3461021c57600036600319011261021c57604051600060018054906106be8261194c565b8085529181811690811561075257506001146106f9575b610506846106e58186038261183b565b60405191829160208352602083019061179b565b600081815292507fb10e2d527612073b26eecdfd717e6a320cf44b4afac2b0732d9fcbe2b7fa0cf65b82841061073a5750505081016020016106e5826106d5565b80546020858701810191909152909301928101610722565b60ff191660208087019190915292151560051b850190920192506106e591508390506106d5565b3461021c57610787366118c0565b90610790611a2c565b80600052602091600283526107b360018060a01b03604060002054161515611d2f565b81600052600a835260ff60056040600020015416156108205781927f37ec22acf5d9778ea37b449f7834d99acb0c9632e381d2ceba59480d79ca91a792600052600a8152600560406000200160ff19815416905561081b60405192828493845283019061179b565b0390a2005b60405162461bcd60e51b815260048101849052602660248201527f566572697461735342543a2043726564656e7469616c20616c72656164792072604482015265195d9bdad95960d21b6064820152608490fd5b3461021c57604036600319011261021c5761088d6117c0565b6001600160a01b03166000908152600c602052604090208054602435919082101561021c576020916108be916118ef565b90546040519160031b1c8152f35b3461021c576108da366118c0565b906108e3611a2c565b806000526020916002835261090660018060a01b03604060002054161515611d2f565b6109108183611b41565b81600052600a83526004604060002001928151936001600160401b03851161050a5761093c815461194c565b601f8111610a37575b5081601f86116001146109b25794807f459157ba24c7ab9878b165ef465fa6ae2ab42bcd8445f576be378768b0c4730995966000916109a7575b508160011b916000199060031b1c19161790555b61081b60405192828493845283019061179b565b90508401518761097f565b601f1986169082600052836000209160005b818110610a2057509187917f459157ba24c7ab9878b165ef465fa6ae2ab42bcd8445f576be378768b0c47309979860019410610a07575b5050811b019055610993565b86015160001960f88460031b161c1916905587806109fb565b91928560018192868a0151815501940192016109c4565b8160005282600020601f870160051c810191848810610a73575b601f0160051c01905b818110610a675750610945565b60008155600101610a5a565b9091508190610a51565b3461021c5760208060031936011261021c5760405160c091600435610aa183611820565b600060a06060948581528585820152826040820152828682015285608082015201528060005260028252610ae360018060a01b03604060002054161515611d2f565b600052600a8152610bac60406000209260405193610b0085611820565b610b0981611986565b8552610b1760018201611986565b9084860191825260028101549260408701938452600382015490808801918252610b90610b7a60ff6005610b4d60048801611986565b9660808d019788520154169860a08b019915158a526040519b8c9b828d5251918c015260e08b019061179b565b945194601f1995868b83030160408c015261179b565b94519088015251608087015251908583030160a086015261179b565b9051151560c08301520390f35b3461021c57600036600319011261021c576007546040516001600160a01b039091168152602090f35b3461021c57600036600319011261021c57610bfb611a2c565b600780546001600160a01b031981169091556000906001600160a01b03167f8be0079c531659141344cd1fd0a4f28419497f9722a3daafe3b4186f6b6457e08280a3005b3461021c57602036600319011261021c576001600160a01b03610c606117c0565b168015610c7f5760005260036020526020604060002054604051908152f35b60405162461bcd60e51b815260206004820152602960248201527f4552433732313a2061646472657373207a65726f206973206e6f7420612076616044820152683634b21037bbb732b960b91b6064820152608490fd5b3461021c57602036600319011261021c576004356000526002602052602060018060a01b0360406000205416610d0d811515611a84565b604051908152f35b6117ec565b3461021c5760a036600319011261021c57610d336117c0565b6024356001600160401b03811161021c57610d529036906004016118a2565b9060449081356001600160401b03811161021c57610d749036906004016118a2565b91608480356001600160401b03811161021c57610d959036906004016118a2565b9133600052600b60205260ff6040600020541615611517576002600854146114d35760026008556001600160a01b038416156114845785511561142f578451156113de5760643515611393575050610dee600954611ad0565b9283600955610e1b610e1585600052600260205260018060a01b0360406000205416151590565b15611af5565b600084815260026020526040902054610e3e906001600160a01b03161515610e15565b6001600160a01b0383166000818152600360209081526040808320805460010190558783526002909152812080546001600160a01b031916831790558591907fddf252ad1be2c89b69c2b068fc378daa952ba7f163c4a11628f55a4df523b3ef8180a4610eab8285611b41565b604051610eb781611820565b8581528160208201524260408201526064356060820152826080820152600160a082015284600052600a60205260406000209080518051906001600160401b03821161050a578190610f09855461194c565b601f8111611343575b50602090601f83116001146112d7576000926112cc575b50508160011b916000199060031b1c19161782555b60208101518051906001600160401b03821161050a578190610f63600186015461194c565b601f8111611279575b50602090601f8311600114611207576000926111fc575b50508160011b916000199060031b1c19161760018301555b604081015160028301556060810151600383015560808101518051906001600160401b03821161050a57610fd2600485015461194c565b601f81116111b5575b50602090601f831160011461113c57928260059360a09361102e9796600092611131575b50508160011b916000199060031b1c19161760048501555b0151151591019060ff801983541691151516179055565b6001600160a01b0383166000908152600c60205260409020805490916801000000000000000082101561050a576020966111216110fa6110ed9361109a868b9860017f82a8e5d15c6ba5df28f8980e442ffc3d8bc06fdcfab9db9372e88fa6c1fd90a6990181556118ef565b81549060031b9089821b91600019901b19161790556040518b8186516110c38183858b01611778565b8101600d8152030190206110d78154611ad0565b905560405194859460a0865260a086019061179b565b908482038c86015261179b565b4260408401526064356060840152828103608084015233976001600160a01b03169661179b565b0390a46001600855604051908152f35b015190508c80610fff565b906004850160005260206000209160005b601f198516811061119d57508360a09361102e979693600193600597601f19811610611184575b505050811b016004850155611017565b015160001960f88460031b161c191690558c8080611174565b9192602060018192868501518155019401920161114d565b600485016000526020600020601f840160051c8101602085106111f5575b601f830160051c820181106111e9575050610fdb565b600081556001016111d3565b50806111d3565b015190508980610f83565b9250600185016000526020600020906000935b601f198416851061125e576001945083601f19811610611245575b505050811b016001830155610f9b565b015160001960f88460031b161c19169055898080611235565b8181015183556020948501946001909301929091019061121a565b909150600185016000526020600020601f840160051c8101602085106112c5575b90849392915b601f830160051c820181106112b6575050610f6c565b600081558594506001016112a0565b508061129a565b015190508980610f29565b9250846000526020600020906000935b601f1984168510611328576001945083601f1981161061130f575b505050811b018255610f3e565b015160001960f88460031b161c19169055898080611302565b818101518355602094850194600190930192909101906112e7565b909150846000526020600020601f840160051c81016020851061138c575b90849392915b601f830160051c8201811061137d575050610f12565b60008155859450600101611367565b5080611361565b7f566572697461735342543a20496e76616c6964206d65746164617461206861736040519162461bcd60e51b83526020600484015260216024840152820152600d60fb1b6064820152fd5b7f566572697461735342543a20497373756572206e616d652063616e6e6f7420626040519162461bcd60e51b83526020600484015260276024840152820152666520656d70747960c81b6064820152fd5b7f566572697461735342543a2043726564656e7469616c20747970652063616e6e6040519162461bcd60e51b835260206004840152602b60248401528201526a6f7420626520656d70747960a81b6064820152fd5b7f566572697461735342543a20496e76616c696420726563697069656e742061646040519162461bcd60e51b8352602060048401526025602484015282015264647265737360d81b6064820152fd5b6064907f5265656e7472616e637947756172643a207265656e7472616e742063616c6c006040519162461bcd60e51b835260206004840152601f6024840152820152fd5b7f566572697461735342543a204e6f7420612077686974656c69737465642069736040519162461bcd60e51b8352602060048401526024808401528201526339bab2b960e11b6064820152fd5b3461021c57600036600319011261021c576020600954604051908152f35b3461021c57604036600319011261021c5761159b6117c0565b5060405162461bcd60e51b815260206004820152602f60248201527f566572697461735342543a20536f756c626f756e6420746f6b656e732063616e60448201526e1b9bdd08189948185c1c1c9bdd9959608a1b6064820152608490fd5b3461021c57602036600319011261021c57600435600081815260026020526040902054611630906001600160a01b03161515611a84565b6000526004602052602060018060a01b0360406000205416604051908152f35b3461021c57600036600319011261021c57604051600080546116718161194c565b80845290600190818116908115610752575060011461169a57610506846106e58186038261183b565b600080805292507f290decd9548b62a8d60345a988386fc84ba6bc95484008f6362f93160ef3e5635b8284106116db5750505081016020016106e5826106d5565b805460208587018101919091529093019281016116c3565b3461021c57602036600319011261021c576004359063ffffffff60e01b821680920361021c57602091632483248360e11b8114908115611735575b5015158152f35b6380ac58cd60e01b811491508115611767575b8115611756575b508361172e565b6301ffc9a760e01b1490508361174f565b635b5e139f60e01b81149150611748565b60005b83811061178b5750506000910152565b818101518382015260200161177b565b906020916117b481518092818552858086019101611778565b601f01601f1916010190565b600435906001600160a01b038216820361021c57565b602435906001600160a01b038216820361021c57565b3461021c57606036600319011261021c576001600160a01b036004358181160361021c5760243590811614611d7a57600080fd5b60c081019081106001600160401b0382111761050a57604052565b90601f801991011681019081106001600160401b0382111761050a57604052565b9291926001600160401b03821161050a5760405191611885601f8201601f19166020018461183b565b82948184528183011161021c578281602093846000960137010152565b9080601f8301121561021c578160206118bd9335910161185c565b90565b90604060031983011261021c5760043591602435906001600160401b03821161021c576118bd916004016118a2565b80548210156119075760005260206000200190600090565b634e487b7160e01b600052603260045260246000fd5b604090600319011261021c576004356001600160a01b038116810361021c5790602435801515810361021c5790565b90600182811c9216801561197c575b602083101461196657565b634e487b7160e01b600052602260045260246000fd5b91607f169161195b565b906040519182600082549261199a8461194c565b908184526001948581169081600014611a0957506001146119c6575b50506119c49250038361183b565b565b9093915060005260209081600020936000915b8183106119f15750506119c4935082010138806119b6565b855488840185015294850194879450918301916119d9565b9150506119c494506020925060ff191682840152151560051b82010138806119b6565b6007546001600160a01b03163303611a4057565b606460405162461bcd60e51b815260206004820152602060248201527f4f776e61626c653a2063616c6c6572206973206e6f7420746865206f776e65726044820152fd5b15611a8b57565b60405162461bcd60e51b815260206004820152601860248201527f4552433732313a20696e76616c696420746f6b656e20494400000000000000006044820152606490fd5b6000198114611adf5760010190565b634e487b7160e01b600052601160045260246000fd5b15611afc57565b60405162461bcd60e51b815260206004820152601c60248201527f4552433732313a20746f6b656e20616c7265616479206d696e746564000000006044820152606490fd5b6000818152600260205260409020549192916001600160a01b031615611cd3576000908082526020916006835260408120908551906001600160401b038211611cbf57611b8e835461194c565b601f8111611c7c575b508490601f8311600114611bf857907ff8e1a15aba9398e019f0b49df1a4fde98ee17ae345cb5f6b5e2c27f5033e8ce7969783611bed575b50508160011b916000199060031b1c19161790555b604051908152a1565b015190503880611bcf565b9196601f198816848452868420935b818110611c6557509160019391897ff8e1a15aba9398e019f0b49df1a4fde98ee17ae345cb5f6b5e2c27f5033e8ce7999a9410611c4c575b505050811b019055611be4565b015160001960f88460031b161c19169055388080611c3f565b929387600181928786015181550195019301611c07565b838252858220601f840160051c810191878510611cb5575b601f0160051c01905b818110611caa5750611b97565b828155600101611c9d565b9091508190611c94565b634e487b7160e01b81526041600452602490fd5b60405162461bcd60e51b815260206004820152602e60248201527f45524337323155524953746f726167653a2055524920736574206f66206e6f6e60448201526d32bc34b9ba32b73a103a37b5b2b760911b6064820152608490fd5b15611d3657565b606460405162461bcd60e51b815260206004820152602060248201527f566572697461735342543a20546f6b656e20646f6573206e6f742065786973746044820152fd5b60405162461bcd60e51b815260206004820152603260248201527f566572697461735342543a20536f756c626f756e6420746f6b656e732063616e6044820152711b9bdd081899481d1c985b9cd9995c9c995960721b6064820152608490fdfea2646970667358221220082705f31b45ca79008803559646cb363416c752c2b203f835b84114fc00880064736f6c63430008130033","opcodes":"PUSH1 0x80 CALLVALUE PUSH3 0x371 JUMPI PUSH1 0x1 PUSH1 0x1 PUSH1 0x40 SHL SUB SWAP1 PUSH1 0x40 SWAP1 DUP1 DUP3 ADD DUP4 DUP2 GT DUP3 DUP3 LT OR PUSH3 0x35B JUMPI DUP3 MSTORE PUSH1 0x17 DUP2 MSTORE PUSH1 0x20 SWAP2 PUSH32 0x5665726974617320536F756C626F756E6420546F6B656E000000000000000000 DUP4 DUP4 ADD MSTORE DUP1 MLOAD SWAP4 DUP2 DUP6 ADD DUP6 DUP2 LT DUP3 DUP3 GT OR PUSH3 0x35B JUMPI DUP3 MSTORE PUSH1 0x4 DUP6 MSTORE PUSH4 0x1594D095 PUSH1 0xE2 SHL DUP5 DUP7 ADD MSTORE DUP3 MLOAD DUP2 DUP2 GT PUSH3 0x35B JUMPI PUSH1 0x0 SWAP5 DUP6 SLOAD SWAP2 PUSH1 0x1 SWAP6 DUP7 DUP5 DUP2 SHR SWAP5 AND DUP1 ISZERO PUSH3 0x350 JUMPI JUMPDEST DUP4 DUP6 LT EQ PUSH3 0x33C JUMPI DUP2 SWAP1 PUSH1 0x1F SWAP5 DUP6 DUP2 GT PUSH3 0x2E9 JUMPI JUMPDEST POP DUP4 SWAP1 DUP6 DUP4 GT PUSH1 0x1 EQ PUSH3 0x285 JUMPI DUP10 SWAP3 PUSH3 0x279 JUMPI JUMPDEST POP POP PUSH1 0x0 NOT PUSH1 0x3 DUP4 SWAP1 SHL SHR NOT AND SWAP1 DUP7 SHL OR DUP7 SSTORE JUMPDEST DUP7 MLOAD SWAP3 DUP4 GT PUSH3 0x265 JUMPI DUP5 SLOAD DUP6 DUP2 DUP2 SHR SWAP2 AND DUP1 ISZERO PUSH3 0x25A JUMPI JUMPDEST DUP3 DUP3 LT EQ PUSH3 0x246 JUMPI DUP3 DUP2 GT PUSH3 0x1FE JUMPI JUMPDEST POP DUP1 SWAP2 DUP4 GT PUSH1 0x1 EQ PUSH3 0x195 JUMPI POP DUP5 SWAP6 DUP3 SWAP4 SWAP5 SWAP6 SWAP3 PUSH3 0x189 JUMPI JUMPDEST POP POP PUSH1 0x0 NOT PUSH1 0x3 DUP4 SWAP1 SHL SHR NOT AND SWAP1 DUP4 SHL OR DUP3 SSTORE JUMPDEST PUSH1 0x7 DUP1 SLOAD CALLER PUSH1 0x1 PUSH1 0x1 PUSH1 0xA0 SHL SUB NOT DUP3 AND DUP2 OR SWAP1 SWAP3 SSTORE SWAP2 MLOAD SWAP4 SWAP1 SWAP2 PUSH1 0x1 PUSH1 0x1 PUSH1 0xA0 SHL SUB AND SWAP1 PUSH32 0x8BE0079C531659141344CD1FD0A4F28419497F9722A3DAAFE3B4186F6B6457E0 SWAP1 DUP1 LOG3 PUSH1 0x8 SSTORE PUSH2 0x1E10 SWAP1 DUP2 PUSH3 0x377 DUP3 CODECOPY RETURN JUMPDEST ADD MLOAD SWAP1 POP CODESIZE DUP1 PUSH3 0x11D JUMP JUMPDEST SWAP1 PUSH1 0x1F NOT DUP4 AND SWAP7 DUP6 DUP8 MSTORE DUP3 DUP8 KECCAK256 SWAP3 DUP8 SWAP1 JUMPDEST DUP10 DUP3 LT PUSH3 0x1E6 JUMPI POP POP DUP4 DUP7 SWAP8 SWAP9 SWAP7 SWAP6 SWAP7 LT PUSH3 0x1CC JUMPI JUMPDEST POP POP POP DUP2 SHL ADD DUP3 SSTORE PUSH3 0x131 JUMP JUMPDEST ADD MLOAD PUSH1 0x0 NOT PUSH1 0xF8 DUP5 PUSH1 0x3 SHL AND SHR NOT AND SWAP1 SSTORE CODESIZE DUP1 DUP1 PUSH3 0x1BE JUMP JUMPDEST DUP1 DUP9 DUP6 SWAP7 DUP3 SWAP5 SWAP7 DUP7 ADD MLOAD DUP2 SSTORE ADD SWAP6 ADD SWAP4 ADD SWAP1 PUSH3 0x1A6 JUMP JUMPDEST DUP6 DUP8 MSTORE DUP2 DUP8 KECCAK256 DUP4 DUP1 DUP7 ADD PUSH1 0x5 SHR DUP3 ADD SWAP3 DUP5 DUP8 LT PUSH3 0x23C JUMPI JUMPDEST ADD PUSH1 0x5 SHR ADD SWAP1 DUP7 SWAP1 JUMPDEST DUP3 DUP2 LT PUSH3 0x230 JUMPI POP POP PUSH3 0x102 JUMP JUMPDEST DUP9 DUP2 SSTORE ADD DUP7 SWAP1 PUSH3 0x220 JUMP JUMPDEST SWAP3 POP DUP2 SWAP3 PUSH3 0x217 JUMP JUMPDEST PUSH4 0x4E487B71 PUSH1 0xE0 SHL DUP8 MSTORE PUSH1 0x22 PUSH1 0x4 MSTORE PUSH1 0x24 DUP8 REVERT JUMPDEST SWAP1 PUSH1 0x7F AND SWAP1 PUSH3 0xF0 JUMP JUMPDEST PUSH4 0x4E487B71 PUSH1 0xE0 SHL DUP7 MSTORE PUSH1 0x41 PUSH1 0x4 MSTORE PUSH1 0x24 DUP7 REVERT JUMPDEST ADD MLOAD SWAP1 POP CODESIZE DUP1 PUSH3 0xC2 JUMP JUMPDEST DUP10 DUP1 MSTORE DUP5 DUP11 KECCAK256 DUP10 SWAP5 POP SWAP2 SWAP1 PUSH1 0x1F NOT DUP5 AND DUP12 JUMPDEST DUP8 DUP3 DUP3 LT PUSH3 0x2D2 JUMPI POP POP DUP5 GT PUSH3 0x2B8 JUMPI JUMPDEST POP POP POP DUP2 SHL ADD DUP7 SSTORE PUSH3 0xD6 JUMP JUMPDEST ADD MLOAD PUSH1 0x0 NOT PUSH1 0xF8 DUP5 PUSH1 0x3 SHL AND SHR NOT AND SWAP1 SSTORE CODESIZE DUP1 DUP1 PUSH3 0x2AA JUMP JUMPDEST DUP4 DUP6 ADD MLOAD DUP7 SSTORE DUP13 SWAP8 SWAP1 SWAP6 ADD SWAP5 SWAP4 DUP5 ADD SWAP4 ADD PUSH3 0x297 JUMP JUMPDEST SWAP1 SWAP2 POP DUP9 DUP1 MSTORE DUP4 DUP10 KECCAK256 DUP6 DUP1 DUP6 ADD PUSH1 0x5 SHR DUP3 ADD SWAP3 DUP7 DUP7 LT PUSH3 0x332 JUMPI JUMPDEST SWAP2 DUP11 SWAP2 DUP7 SWAP6 SWAP5 SWAP4 ADD PUSH1 0x5 SHR ADD SWAP2 JUMPDEST DUP3 DUP2 LT PUSH3 0x323 JUMPI POP POP PUSH3 0xAC JUMP JUMPDEST DUP12 DUP2 SSTORE DUP6 SWAP5 POP DUP11 SWAP2 ADD PUSH3 0x313 JUMP JUMPDEST SWAP3 POP DUP2 SWAP3 PUSH3 0x305 JUMP JUMPDEST PUSH4 0x4E487B71 PUSH1 0xE0 SHL DUP9 MSTORE PUSH1 0x22 PUSH1 0x4 MSTORE PUSH1 0x24 DUP9 REVERT JUMPDEST SWAP4 PUSH1 0x7F AND SWAP4 PUSH3 0x95 JUMP JUMPDEST PUSH4 0x4E487B71 PUSH1 0xE0 SHL PUSH1 0x0 MSTORE PUSH1 0x41 PUSH1 0x4 MSTORE PUSH1 0x24 PUSH1 0x0 REVERT JUMPDEST PUSH1 0x0 DUP1 REVERT INVALID PUSH1 0x80 DUP1 PUSH1 0x40 MSTORE PUSH1 0x4 CALLDATASIZE LT ISZERO PUSH2 0x13 JUMPI PUSH1 0x0 DUP1 REVERT JUMPDEST PUSH1 0x0 CALLDATALOAD PUSH1 0xE0 SHR SWAP1 DUP2 PUSH4 0x1FFC9A7 EQ PUSH2 0x16F3 JUMPI POP DUP1 PUSH4 0x6FDDE03 EQ PUSH2 0x1650 JUMPI DUP1 PUSH4 0x81812FC EQ PUSH2 0x15F9 JUMPI DUP1 PUSH4 0x95EA7B3 EQ PUSH2 0x1582 JUMPI DUP1 PUSH4 0x18160DDD EQ PUSH2 0x1564 JUMPI DUP1 PUSH4 0x23B872DD EQ PUSH2 0xD15 JUMPI DUP1 PUSH4 0x2672A359 EQ PUSH2 0xD1A JUMPI DUP1 PUSH4 0x42842E0E EQ PUSH2 0xD15 JUMPI DUP1 PUSH4 0x6352211E EQ PUSH2 0xCD6 JUMPI DUP1 PUSH4 0x70A08231 EQ PUSH2 0xC3F JUMPI DUP1 PUSH4 0x715018A6 EQ PUSH2 0xBE2 JUMPI DUP1 PUSH4 0x8DA5CB5B EQ PUSH2 0xBB9 JUMPI DUP1 PUSH4 0x8DD18D2D EQ PUSH2 0xA7D JUMPI DUP1 PUSH4 0x8FE86B3F EQ PUSH2 0x8CC JUMPI DUP1 PUSH4 0x9364ACE9 EQ PUSH2 0x874 JUMPI DUP1 PUSH4 0x957A3205 EQ PUSH2 0x779 JUMPI DUP1 PUSH4 0x95D89B41 EQ PUSH2 0x69A JUMPI DUP1 PUSH4 0xA22CB465 EQ PUSH2 0x62D JUMPI DUP1 PUSH4 0xB88D4FDE EQ PUSH2 0x5D4 JUMPI DUP1 PUSH4 0xB9565FBD EQ PUSH2 0x425 JUMPI DUP1 PUSH4 0xC76D2919 EQ PUSH2 0x520 JUMPI DUP1 PUSH4 0xC87B56DD EQ PUSH2 0x481 JUMPI DUP1 PUSH4 0xC9174B1F EQ PUSH2 0x425 JUMPI DUP1 PUSH4 0xD61C0E78 EQ PUSH2 0x3E6 JUMPI DUP1 PUSH4 0xE0574E3F EQ PUSH2 0x33F JUMPI DUP1 PUSH4 0xE985E9C5 EQ PUSH2 0x2E9 JUMPI DUP1 PUSH4 0xF1880733 EQ PUSH2 0x221 JUMPI PUSH4 0xF2FDE38B EQ PUSH2 0x153 JUMPI PUSH1 0x0 DUP1 REVERT JUMPDEST CALLVALUE PUSH2 0x21C JUMPI PUSH1 0x20 CALLDATASIZE PUSH1 0x3 NOT ADD SLT PUSH2 0x21C JUMPI PUSH2 0x16C PUSH2 0x17C0 JUMP JUMPDEST PUSH2 0x174 PUSH2 0x1A2C JUMP JUMPDEST PUSH1 0x1 PUSH1 0x1 PUSH1 0xA0 SHL SUB SWAP1 DUP2 AND SWAP1 DUP2 ISZERO PUSH2 0x1C8 JUMPI PUSH1 0x7 SLOAD DUP3 PUSH12 0xFFFFFFFFFFFFFFFFFFFFFFFF PUSH1 0xA0 SHL DUP3 AND OR PUSH1 0x7 SSTORE AND PUSH32 0x8BE0079C531659141344CD1FD0A4F28419497F9722A3DAAFE3B4186F6B6457E0 PUSH1 0x0 DUP1 LOG3 STOP JUMPDEST PUSH1 0x40 MLOAD PUSH3 0x461BCD PUSH1 0xE5 SHL DUP2 MSTORE PUSH1 0x20 PUSH1 0x4 DUP3 ADD MSTORE PUSH1 0x26 PUSH1 0x24 DUP3 ADD MSTORE PUSH32 0x4F776E61626C653A206E6577206F776E657220697320746865207A65726F2061 PUSH1 0x44 DUP3 ADD MSTORE PUSH6 0x646472657373 PUSH1 0xD0 SHL PUSH1 0x64 DUP3 ADD MSTORE PUSH1 0x84 SWAP1 REVERT JUMPDEST PUSH1 0x0 DUP1 REVERT JUMPDEST CALLVALUE PUSH2 0x21C JUMPI PUSH2 0x22F CALLDATASIZE PUSH2 0x191D JUMP JUMPDEST SWAP1 PUSH2 0x238 PUSH2 0x1A2C JUMP JUMPDEST PUSH1 0x1 PUSH1 0x1 PUSH1 0xA0 SHL SUB AND SWAP1 DUP2 ISZERO PUSH2 0x299 JUMPI PUSH1 0x20 PUSH32 0x1FE38ADD9C87023405F4F0BE0CDDF72B01DE35F71327638BBE7E31EB40D2468 SWAP2 DUP4 PUSH1 0x0 MSTORE PUSH1 0xB DUP3 MSTORE PUSH2 0x28E DUP2 PUSH1 0x40 PUSH1 0x0 KECCAK256 SWAP1 PUSH1 0xFF DUP1 NOT DUP4 SLOAD AND SWAP2 ISZERO ISZERO AND OR SWAP1 SSTORE JUMP JUMPDEST PUSH1 0x40 MLOAD SWAP1 ISZERO ISZERO DUP2 MSTORE LOG2 STOP JUMPDEST PUSH1 0x40 MLOAD PUSH3 0x461BCD PUSH1 0xE5 SHL DUP2 MSTORE PUSH1 0x20 PUSH1 0x4 DUP3 ADD MSTORE PUSH1 0x22 PUSH1 0x24 DUP3 ADD MSTORE PUSH32 0x566572697461735342543A20496E76616C696420697373756572206164647265 PUSH1 0x44 DUP3 ADD MSTORE PUSH2 0x7373 PUSH1 0xF0 SHL PUSH1 0x64 DUP3 ADD MSTORE PUSH1 0x84 SWAP1 REVERT JUMPDEST CALLVALUE PUSH2 0x21C JUMPI PUSH1 0x40 CALLDATASIZE PUSH1 0x3 NOT ADD SLT PUSH2 0x21C JUMPI PUSH2 0x302 PUSH2 0x17C0 JUMP JUMPDEST PUSH2 0x30A PUSH2 0x17D6 JUMP JUMPDEST SWAP1 PUSH1 0x1 DUP1 PUSH1 0xA0 SHL SUB DUP1 SWAP2 AND PUSH1 0x0 MSTORE PUSH1 0x5 PUSH1 0x20 MSTORE PUSH1 0x40 PUSH1 0x0 KECCAK256 SWAP2 AND PUSH1 0x0 MSTORE PUSH1 0x20 MSTORE PUSH1 0x20 PUSH1 0xFF PUSH1 0x40 PUSH1 0x0 KECCAK256 SLOAD AND PUSH1 0x40 MLOAD SWAP1 ISZERO ISZERO DUP2 MSTORE RETURN JUMPDEST CALLVALUE PUSH2 0x21C JUMPI PUSH1 0x20 CALLDATASIZE PUSH1 0x3 NOT ADD SLT PUSH2 0x21C JUMPI PUSH1 0x4 CALLDATALOAD PUSH1 0x0 MSTORE PUSH1 0xA PUSH1 0x20 MSTORE PUSH2 0x3B4 PUSH1 0x40 PUSH1 0x0 KECCAK256 PUSH2 0x36C DUP2 PUSH2 0x1986 JUMP JUMPDEST SWAP1 PUSH2 0x3DA PUSH2 0x37C PUSH1 0x1 DUP4 ADD PUSH2 0x1986 JUMP JUMPDEST SWAP2 PUSH1 0x2 DUP2 ADD SLOAD SWAP1 PUSH1 0x3 DUP2 ADD SLOAD PUSH2 0x3C2 PUSH1 0xFF PUSH1 0x5 PUSH2 0x39B PUSH1 0x4 DUP7 ADD PUSH2 0x1986 JUMP JUMPDEST SWAP5 ADD SLOAD AND SWAP6 PUSH1 0x40 MLOAD SWAP9 DUP10 SWAP9 PUSH1 0xC0 DUP11 MSTORE PUSH1 0xC0 DUP11 ADD SWAP1 PUSH2 0x179B JUMP JUMPDEST SWAP1 DUP9 DUP3 SUB PUSH1 0x20 DUP11 ADD MSTORE PUSH2 0x179B JUMP JUMPDEST SWAP3 PUSH1 0x40 DUP8 ADD MSTORE PUSH1 0x60 DUP7 ADD MSTORE DUP5 DUP3 SUB PUSH1 0x80 DUP7 ADD MSTORE PUSH2 0x179B JUMP JUMPDEST SWAP1 ISZERO ISZERO PUSH1 0xA0 DUP4 ADD MSTORE SUB SWAP1 RETURN JUMPDEST CALLVALUE PUSH2 0x21C JUMPI PUSH1 0x20 CALLDATASIZE PUSH1 0x3 NOT ADD SLT PUSH2 0x21C JUMPI PUSH1 0x1 PUSH1 0x1 PUSH1 0xA0 SHL SUB PUSH2 0x407 PUSH2 0x17C0 JUMP JUMPDEST AND PUSH1 0x0 MSTORE PUSH1 0xB PUSH1 0x20 MSTORE PUSH1 0x20 PUSH1 0xFF PUSH1 0x40 PUSH1 0x0 KECCAK256 SLOAD AND PUSH1 0x40 MLOAD SWAP1 ISZERO ISZERO DUP2 MSTORE RETURN JUMPDEST CALLVALUE PUSH2 0x21C JUMPI PUSH1 0x20 CALLDATASIZE PUSH1 0x3 NOT ADD SLT PUSH2 0x21C JUMPI PUSH1 0x4 CALLDATALOAD PUSH1 0x1 PUSH1 0x1 PUSH1 0x40 SHL SUB DUP2 GT PUSH2 0x21C JUMPI PUSH2 0x46E PUSH1 0x20 PUSH2 0x45B DUP2 SWAP4 CALLDATASIZE SWAP1 PUSH1 0x4 ADD PUSH2 0x18A2 JUMP JUMPDEST DUP2 PUSH1 0x40 MLOAD SWAP4 DUP3 DUP6 DUP1 SWAP5 MLOAD SWAP4 DUP5 SWAP3 ADD PUSH2 0x1778 JUMP JUMPDEST DUP2 ADD PUSH1 0xD DUP2 MSTORE SUB ADD SWAP1 KECCAK256 SLOAD PUSH1 0x40 MLOAD SWAP1 DUP2 MSTORE RETURN JUMPDEST CALLVALUE PUSH2 0x21C JUMPI PUSH1 0x20 CALLDATASIZE PUSH1 0x3 NOT ADD SLT PUSH2 0x21C JUMPI PUSH1 0x4 CALLDATALOAD PUSH1 0x0 DUP2 DUP2 MSTORE PUSH1 0x2 PUSH1 0x20 MSTORE PUSH1 0x40 SWAP1 KECCAK256 SLOAD PUSH2 0x4B8 SWAP1 PUSH1 0x1 PUSH1 0x1 PUSH1 0xA0 SHL SUB AND ISZERO ISZERO PUSH2 0x1A84 JUMP JUMPDEST PUSH1 0x0 MSTORE PUSH1 0x6 PUSH1 0x20 MSTORE PUSH2 0x4CD PUSH1 0x40 PUSH1 0x0 KECCAK256 PUSH2 0x1986 JUMP JUMPDEST PUSH1 0x40 MLOAD SWAP1 PUSH1 0x20 DUP3 ADD DUP3 DUP2 LT PUSH1 0x1 PUSH1 0x1 PUSH1 0x40 SHL SUB DUP3 GT OR PUSH2 0x50A JUMPI PUSH2 0x506 SWAP3 PUSH1 0x0 SWAP2 PUSH1 0x40 MSTORE MSTORE PUSH1 0x40 MLOAD SWAP2 DUP3 SWAP2 PUSH1 0x20 DUP4 MSTORE PUSH1 0x20 DUP4 ADD SWAP1 PUSH2 0x179B JUMP JUMPDEST SUB SWAP1 RETURN JUMPDEST PUSH4 0x4E487B71 PUSH1 0xE0 SHL PUSH1 0x0 MSTORE PUSH1 0x41 PUSH1 0x4 MSTORE PUSH1 0x24 PUSH1 0x0 REVERT JUMPDEST CALLVALUE PUSH2 0x21C JUMPI PUSH1 0x20 DUP1 PUSH1 0x3 NOT CALLDATASIZE ADD SLT PUSH2 0x21C JUMPI PUSH1 0x1 PUSH1 0x1 PUSH1 0xA0 SHL SUB PUSH2 0x542 PUSH2 0x17C0 JUMP JUMPDEST AND PUSH1 0x0 MSTORE PUSH1 0xC DUP2 MSTORE PUSH1 0x40 PUSH1 0x0 KECCAK256 PUSH1 0x40 MLOAD SWAP1 DUP2 DUP4 DUP3 SLOAD SWAP2 DUP3 DUP2 MSTORE ADD SWAP1 DUP2 SWAP3 PUSH1 0x0 MSTORE DUP5 PUSH1 0x0 KECCAK256 SWAP1 PUSH1 0x0 JUMPDEST DUP7 DUP3 DUP3 LT PUSH2 0x5C0 JUMPI DUP7 DUP7 PUSH2 0x580 DUP3 DUP9 SUB DUP4 PUSH2 0x183B JUMP JUMPDEST PUSH1 0x40 MLOAD SWAP3 DUP4 SWAP3 DUP2 DUP5 ADD SWAP1 DUP3 DUP6 MSTORE MLOAD DUP1 SWAP2 MSTORE PUSH1 0x40 DUP5 ADD SWAP3 SWAP2 PUSH1 0x0 JUMPDEST DUP3 DUP2 LT PUSH2 0x5A9 JUMPI POP POP POP POP SUB SWAP1 RETURN JUMPDEST DUP4 MLOAD DUP6 MSTORE DUP7 SWAP6 POP SWAP4 DUP2 ADD SWAP4 SWAP3 DUP2 ADD SWAP3 PUSH1 0x1 ADD PUSH2 0x59A JUMP JUMPDEST DUP4 SLOAD DUP6 MSTORE SWAP1 SWAP4 ADD SWAP3 PUSH1 0x1 SWAP3 DUP4 ADD SWAP3 ADD PUSH2 0x56A JUMP JUMPDEST CALLVALUE PUSH2 0x21C JUMPI PUSH1 0x80 CALLDATASIZE PUSH1 0x3 NOT ADD SLT PUSH2 0x21C JUMPI PUSH2 0x5ED PUSH2 0x17C0 JUMP JUMPDEST POP PUSH2 0x5F6 PUSH2 0x17D6 JUMP JUMPDEST POP PUSH1 0x64 CALLDATALOAD PUSH1 0x1 PUSH1 0x1 PUSH1 0x40 SHL SUB DUP2 GT PUSH2 0x21C JUMPI CALLDATASIZE PUSH1 0x23 DUP3 ADD SLT ISZERO PUSH2 0x21C JUMPI PUSH2 0x627 SWAP1 CALLDATASIZE SWAP1 PUSH1 0x24 DUP2 PUSH1 0x4 ADD CALLDATALOAD SWAP2 ADD PUSH2 0x185C JUMP JUMPDEST POP PUSH2 0x1D7A JUMP JUMPDEST CALLVALUE PUSH2 0x21C JUMPI PUSH2 0x63B CALLDATASIZE PUSH2 0x191D JUMP JUMPDEST POP POP PUSH1 0x40 MLOAD PUSH3 0x461BCD PUSH1 0xE5 SHL DUP2 MSTORE PUSH1 0x20 PUSH1 0x4 DUP3 ADD MSTORE PUSH1 0x2F PUSH1 0x24 DUP3 ADD MSTORE PUSH32 0x566572697461735342543A20536F756C626F756E6420746F6B656E732063616E PUSH1 0x44 DUP3 ADD MSTORE PUSH15 0x1B9BDD08189948185C1C1C9BDD9959 PUSH1 0x8A SHL PUSH1 0x64 DUP3 ADD MSTORE PUSH1 0x84 SWAP1 REVERT JUMPDEST CALLVALUE PUSH2 0x21C JUMPI PUSH1 0x0 CALLDATASIZE PUSH1 0x3 NOT ADD SLT PUSH2 0x21C JUMPI PUSH1 0x40 MLOAD PUSH1 0x0 PUSH1 0x1 DUP1 SLOAD SWAP1 PUSH2 0x6BE DUP3 PUSH2 0x194C JUMP JUMPDEST DUP1 DUP6 MSTORE SWAP2 DUP2 DUP2 AND SWAP1 DUP2 ISZERO PUSH2 0x752 JUMPI POP PUSH1 0x1 EQ PUSH2 0x6F9 JUMPI JUMPDEST PUSH2 0x506 DUP5 PUSH2 0x6E5 DUP2 DUP7 SUB DUP3 PUSH2 0x183B JUMP JUMPDEST PUSH1 0x40 MLOAD SWAP2 DUP3 SWAP2 PUSH1 0x20 DUP4 MSTORE PUSH1 0x20 DUP4 ADD SWAP1 PUSH2 0x179B JUMP JUMPDEST PUSH1 0x0 DUP2 DUP2 MSTORE SWAP3 POP PUSH32 0xB10E2D527612073B26EECDFD717E6A320CF44B4AFAC2B0732D9FCBE2B7FA0CF6 JUMPDEST DUP3 DUP5 LT PUSH2 0x73A JUMPI POP POP POP DUP2 ADD PUSH1 0x20 ADD PUSH2 0x6E5 DUP3 PUSH2 0x6D5 JUMP JUMPDEST DUP1 SLOAD PUSH1 0x20 DUP6 DUP8 ADD DUP2 ADD SWAP2 SWAP1 SWAP2 MSTORE SWAP1 SWAP4 ADD SWAP3 DUP2 ADD PUSH2 0x722 JUMP JUMPDEST PUSH1 0xFF NOT AND PUSH1 0x20 DUP1 DUP8 ADD SWAP2 SWAP1 SWAP2 MSTORE SWAP3 ISZERO ISZERO PUSH1 0x5 SHL DUP6 ADD SWAP1 SWAP3 ADD SWAP3 POP PUSH2 0x6E5 SWAP2 POP DUP4 SWAP1 POP PUSH2 0x6D5 JUMP JUMPDEST CALLVALUE PUSH2 0x21C JUMPI PUSH2 0x787 CALLDATASIZE PUSH2 0x18C0 JUMP JUMPDEST SWAP1 PUSH2 0x790 PUSH2 0x1A2C JUMP JUMPDEST DUP1 PUSH1 0x0 MSTORE PUSH1 0x20 SWAP2 PUSH1 0x2 DUP4 MSTORE PUSH2 0x7B3 PUSH1 0x1 DUP1 PUSH1 0xA0 SHL SUB PUSH1 0x40 PUSH1 0x0 KECCAK256 SLOAD AND ISZERO ISZERO PUSH2 0x1D2F JUMP JUMPDEST DUP2 PUSH1 0x0 MSTORE PUSH1 0xA DUP4 MSTORE PUSH1 0xFF PUSH1 0x5 PUSH1 0x40 PUSH1 0x0 KECCAK256 ADD SLOAD AND ISZERO PUSH2 0x820 JUMPI DUP2 SWAP3 PUSH32 0x37EC22ACF5D9778EA37B449F7834D99ACB0C9632E381D2CEBA59480D79CA91A7 SWAP3 PUSH1 0x0 MSTORE PUSH1 0xA DUP2 MSTORE PUSH1 0x5 PUSH1 0x40 PUSH1 0x0 KECCAK256 ADD PUSH1 0xFF NOT DUP2 SLOAD AND SWAP1 SSTORE PUSH2 0x81B PUSH1 0x40 MLOAD SWAP3 DUP3 DUP5 SWAP4 DUP5 MSTORE DUP4 ADD SWAP1 PUSH2 0x179B JUMP JUMPDEST SUB SWAP1 LOG2 STOP JUMPDEST PUSH1 0x40 MLOAD PUSH3 0x461BCD PUSH1 0xE5 SHL DUP2 MSTORE PUSH1 0x4 DUP2 ADD DUP5 SWAP1 MSTORE PUSH1 0x26 PUSH1 0x24 DUP3 ADD MSTORE PUSH32 0x566572697461735342543A2043726564656E7469616C20616C72656164792072 PUSH1 0x44 DUP3 ADD MSTORE PUSH6 0x195D9BDAD959 PUSH1 0xD2 SHL PUSH1 0x64 DUP3 ADD MSTORE PUSH1 0x84 SWAP1 REVERT JUMPDEST CALLVALUE PUSH2 0x21C JUMPI PUSH1 0x40 CALLDATASIZE PUSH1 0x3 NOT ADD SLT PUSH2 0x21C JUMPI PUSH2 0x88D PUSH2 0x17C0 JUMP JUMPDEST PUSH1 0x1 PUSH1 0x1 PUSH1 0xA0 SHL SUB AND PUSH1 0x0 SWAP1 DUP2 MSTORE PUSH1 0xC PUSH1 0x20 MSTORE PUSH1 0x40 SWAP1 KECCAK256 DUP1 SLOAD PUSH1 0x24 CALLDATALOAD SWAP2 SWAP1 DUP3 LT ISZERO PUSH2 0x21C JUMPI PUSH1 0x20 SWAP2 PUSH2 0x8BE SWAP2 PUSH2 0x18EF JUMP JUMPDEST SWAP1 SLOAD PUSH1 0x40 MLOAD SWAP2 PUSH1 0x3 SHL SHR DUP2 MSTORE RETURN JUMPDEST CALLVALUE PUSH2 0x21C JUMPI PUSH2 0x8DA CALLDATASIZE PUSH2 0x18C0 JUMP JUMPDEST SWAP1 PUSH2 0x8E3 PUSH2 0x1A2C JUMP JUMPDEST DUP1 PUSH1 0x0 MSTORE PUSH1 0x20 SWAP2 PUSH1 0x2 DUP4 MSTORE PUSH2 0x906 PUSH1 0x1 DUP1 PUSH1 0xA0 SHL SUB PUSH1 0x40 PUSH1 0x0 KECCAK256 SLOAD AND ISZERO ISZERO PUSH2 0x1D2F JUMP JUMPDEST PUSH2 0x910 DUP2 DUP4 PUSH2 0x1B41 JUMP JUMPDEST DUP2 PUSH1 0x0 MSTORE PUSH1 0xA DUP4 MSTORE PUSH1 0x4 PUSH1 0x40 PUSH1 0x0 KECCAK256 ADD SWAP3 DUP2 MLOAD SWAP4 PUSH1 0x1 PUSH1 0x1 PUSH1 0x40 SHL SUB DUP6 GT PUSH2 0x50A JUMPI PUSH2 0x93C DUP2 SLOAD PUSH2 0x194C JUMP JUMPDEST PUSH1 0x1F DUP2 GT PUSH2 0xA37 JUMPI JUMPDEST POP DUP2 PUSH1 0x1F DUP7 GT PUSH1 0x1 EQ PUSH2 0x9B2 JUMPI SWAP5 DUP1 PUSH32 0x459157BA24C7AB9878B165EF465FA6AE2AB42BCD8445F576BE378768B0C47309 SWAP6 SWAP7 PUSH1 0x0 SWAP2 PUSH2 0x9A7 JUMPI JUMPDEST POP DUP2 PUSH1 0x1 SHL SWAP2 PUSH1 0x0 NOT SWAP1 PUSH1 0x3 SHL SHR NOT AND OR SWAP1 SSTORE JUMPDEST PUSH2 0x81B PUSH1 0x40 MLOAD SWAP3 DUP3 DUP5 SWAP4 DUP5 MSTORE DUP4 ADD SWAP1 PUSH2 0x179B JUMP JUMPDEST SWAP1 POP DUP5 ADD MLOAD DUP8 PUSH2 0x97F JUMP JUMPDEST PUSH1 0x1F NOT DUP7 AND SWAP1 DUP3 PUSH1 0x0 MSTORE DUP4 PUSH1 0x0 KECCAK256 SWAP2 PUSH1 0x0 JUMPDEST DUP2 DUP2 LT PUSH2 0xA20 JUMPI POP SWAP2 DUP8 SWAP2 PUSH32 0x459157BA24C7AB9878B165EF465FA6AE2AB42BCD8445F576BE378768B0C47309 SWAP8 SWAP9 PUSH1 0x1 SWAP5 LT PUSH2 0xA07 JUMPI JUMPDEST POP POP DUP2 SHL ADD SWAP1 SSTORE PUSH2 0x993 JUMP JUMPDEST DUP7 ADD MLOAD PUSH1 0x0 NOT PUSH1 0xF8 DUP5 PUSH1 0x3 SHL AND SHR NOT AND SWAP1 SSTORE DUP8 DUP1 PUSH2 0x9FB JUMP JUMPDEST SWAP2 SWAP3 DUP6 PUSH1 0x1 DUP2 SWAP3 DUP7 DUP11 ADD MLOAD DUP2 SSTORE ADD SWAP5 ADD SWAP3 ADD PUSH2 0x9C4 JUMP JUMPDEST DUP2 PUSH1 0x0 MSTORE DUP3 PUSH1 0x0 KECCAK256 PUSH1 0x1F DUP8 ADD PUSH1 0x5 SHR DUP2 ADD SWAP2 DUP5 DUP9 LT PUSH2 0xA73 JUMPI JUMPDEST PUSH1 0x1F ADD PUSH1 0x5 SHR ADD SWAP1 JUMPDEST DUP2 DUP2 LT PUSH2 0xA67 JUMPI POP PUSH2 0x945 JUMP JUMPDEST PUSH1 0x0 DUP2 SSTORE PUSH1 0x1 ADD PUSH2 0xA5A JUMP JUMPDEST SWAP1 SWAP2 POP DUP2 SWAP1 PUSH2 0xA51 JUMP JUMPDEST CALLVALUE PUSH2 0x21C JUMPI PUSH1 0x20 DUP1 PUSH1 0x3 NOT CALLDATASIZE ADD SLT PUSH2 0x21C JUMPI PUSH1 0x40 MLOAD PUSH1 0xC0 SWAP2 PUSH1 0x4 CALLDATALOAD PUSH2 0xAA1 DUP4 PUSH2 0x1820 JUMP JUMPDEST PUSH1 0x0 PUSH1 0xA0 PUSH1 0x60 SWAP5 DUP6 DUP2 MSTORE DUP6 DUP6 DUP3 ADD MSTORE DUP3 PUSH1 0x40 DUP3 ADD MSTORE DUP3 DUP7 DUP3 ADD MSTORE DUP6 PUSH1 0x80 DUP3 ADD MSTORE ADD MSTORE DUP1 PUSH1 0x0 MSTORE PUSH1 0x2 DUP3 MSTORE PUSH2 0xAE3 PUSH1 0x1 DUP1 PUSH1 0xA0 SHL SUB PUSH1 0x40 PUSH1 0x0 KECCAK256 SLOAD AND ISZERO ISZERO PUSH2 0x1D2F JUMP JUMPDEST PUSH1 0x0 MSTORE PUSH1 0xA DUP2 MSTORE PUSH2 0xBAC PUSH1 0x40 PUSH1 0x0 KECCAK256 SWAP3 PUSH1 0x40 MLOAD SWAP4 PUSH2 0xB00 DUP6 PUSH2 0x1820 JUMP JUMPDEST PUSH2 0xB09 DUP2 PUSH2 0x1986 JUMP JUMPDEST DUP6 MSTORE PUSH2 0xB17 PUSH1 0x1 DUP3 ADD PUSH2 0x1986 JUMP JUMPDEST SWAP1 DUP5 DUP7 ADD SWAP2 DUP3 MSTORE PUSH1 0x2 DUP2 ADD SLOAD SWAP3 PUSH1 0x40 DUP8 ADD SWAP4 DUP5 MSTORE PUSH1 0x3 DUP3 ADD SLOAD SWAP1 DUP1 DUP9 ADD SWAP2 DUP3 MSTORE PUSH2 0xB90 PUSH2 0xB7A PUSH1 0xFF PUSH1 0x5 PUSH2 0xB4D PUSH1 0x4 DUP9 ADD PUSH2 0x1986 JUMP JUMPDEST SWAP7 PUSH1 0x80 DUP14 ADD SWAP8 DUP9 MSTORE ADD SLOAD AND SWAP9 PUSH1 0xA0 DUP12 ADD SWAP10 ISZERO ISZERO DUP11 MSTORE PUSH1 0x40 MLOAD SWAP12 DUP13 SWAP12 DUP3 DUP14 MSTORE MLOAD SWAP2 DUP13 ADD MSTORE PUSH1 0xE0 DUP12 ADD SWAP1 PUSH2 0x179B JUMP JUMPDEST SWAP5 MLOAD SWAP5 PUSH1 0x1F NOT SWAP6 DUP7 DUP12 DUP4 SUB ADD PUSH1 0x40 DUP13 ADD MSTORE PUSH2 0x179B JUMP JUMPDEST SWAP5 MLOAD SWAP1 DUP9 ADD MSTORE MLOAD PUSH1 0x80 DUP8 ADD MSTORE MLOAD SWAP1 DUP6 DUP4 SUB ADD PUSH1 0xA0 DUP7 ADD MSTORE PUSH2 0x179B JUMP JUMPDEST SWAP1 MLOAD ISZERO ISZERO PUSH1 0xC0 DUP4 ADD MSTORE SUB SWAP1 RETURN JUMPDEST CALLVALUE PUSH2 0x21C JUMPI PUSH1 0x0 CALLDATASIZE PUSH1 0x3 NOT ADD SLT PUSH2 0x21C JUMPI PUSH1 0x7 SLOAD PUSH1 0x40 MLOAD PUSH1 0x1 PUSH1 0x1 PUSH1 0xA0 SHL SUB SWAP1 SWAP2 AND DUP2 MSTORE PUSH1 0x20 SWAP1 RETURN JUMPDEST CALLVALUE PUSH2 0x21C JUMPI PUSH1 0x0 CALLDATASIZE PUSH1 0x3 NOT ADD SLT PUSH2 0x21C JUMPI PUSH2 0xBFB PUSH2 0x1A2C JUMP JUMPDEST PUSH1 0x7 DUP1 SLOAD PUSH1 0x1 PUSH1 0x1 PUSH1 0xA0 SHL SUB NOT DUP2 AND SWAP1 SWAP2 SSTORE PUSH1 0x0 SWAP1 PUSH1 0x1 PUSH1 0x1 PUSH1 0xA0 SHL SUB AND PUSH32 0x8BE0079C531659141344CD1FD0A4F28419497F9722A3DAAFE3B4186F6B6457E0 DUP3 DUP1 LOG3 STOP JUMPDEST CALLVALUE PUSH2 0x21C JUMPI PUSH1 0x20 CALLDATASIZE PUSH1 0x3 NOT ADD SLT PUSH2 0x21C JUMPI PUSH1 0x1 PUSH1 0x1 PUSH1 0xA0 SHL SUB PUSH2 0xC60 PUSH2 0x17C0 JUMP JUMPDEST AND DUP1 ISZERO PUSH2 0xC7F JUMPI PUSH1 0x0 MSTORE PUSH1 0x3 PUSH1 0x20 MSTORE PUSH1 0x20 PUSH1 0x40 PUSH1 0x0 KECCAK256 SLOAD PUSH1 0x40 MLOAD SWAP1 DUP2 MSTORE RETURN JUMPDEST PUSH1 0x40 MLOAD PUSH3 0x461BCD PUSH1 0xE5 SHL DUP2 MSTORE PUSH1 0x20 PUSH1 0x4 DUP3 ADD MSTORE PUSH1 0x29 PUSH1 0x24 DUP3 ADD MSTORE PUSH32 0x4552433732313A2061646472657373207A65726F206973206E6F742061207661 PUSH1 0x44 DUP3 ADD MSTORE PUSH9 0x3634B21037BBB732B9 PUSH1 0xB9 SHL PUSH1 0x64 DUP3 ADD MSTORE PUSH1 0x84 SWAP1 REVERT JUMPDEST CALLVALUE PUSH2 0x21C JUMPI PUSH1 0x20 CALLDATASIZE PUSH1 0x3 NOT ADD SLT PUSH2 0x21C JUMPI PUSH1 0x4 CALLDATALOAD PUSH1 0x0 MSTORE PUSH1 0x2 PUSH1 0x20 MSTORE PUSH1 0x20 PUSH1 0x1 DUP1 PUSH1 0xA0 SHL SUB PUSH1 0x40 PUSH1 0x0 KECCAK256 SLOAD AND PUSH2 0xD0D DUP2 ISZERO ISZERO PUSH2 0x1A84 JUMP JUMPDEST PUSH1 0x40 MLOAD SWAP1 DUP2 MSTORE RETURN JUMPDEST PUSH2 0x17EC JUMP JUMPDEST CALLVALUE PUSH2 0x21C JUMPI PUSH1 0xA0 CALLDATASIZE PUSH1 0x3 NOT ADD SLT PUSH2 0x21C JUMPI PUSH2 0xD33 PUSH2 0x17C0 JUMP JUMPDEST PUSH1 0x24 CALLDATALOAD PUSH1 0x1 PUSH1 0x1 PUSH1 0x40 SHL SUB DUP2 GT PUSH2 0x21C JUMPI PUSH2 0xD52 SWAP1 CALLDATASIZE SWAP1 PUSH1 0x4 ADD PUSH2 0x18A2 JUMP JUMPDEST SWAP1 PUSH1 0x44 SWAP1 DUP2 CALLDATALOAD PUSH1 0x1 PUSH1 0x1 PUSH1 0x40 SHL SUB DUP2 GT PUSH2 0x21C JUMPI PUSH2 0xD74 SWAP1 CALLDATASIZE SWAP1 PUSH1 0x4 ADD PUSH2 0x18A2 JUMP JUMPDEST SWAP2 PUSH1 0x84 DUP1 CALLDATALOAD PUSH1 0x1 PUSH1 0x1 PUSH1 0x40 SHL SUB DUP2 GT PUSH2 0x21C JUMPI PUSH2 0xD95 SWAP1 CALLDATASIZE SWAP1 PUSH1 0x4 ADD PUSH2 0x18A2 JUMP JUMPDEST SWAP2 CALLER PUSH1 0x0 MSTORE PUSH1 0xB PUSH1 0x20 MSTORE PUSH1 0xFF PUSH1 0x40 PUSH1 0x0 KECCAK256 SLOAD AND ISZERO PUSH2 0x1517 JUMPI PUSH1 0x2 PUSH1 0x8 SLOAD EQ PUSH2 0x14D3 JUMPI PUSH1 0x2 PUSH1 0x8 SSTORE PUSH1 0x1 PUSH1 0x1 PUSH1 0xA0 SHL SUB DUP5 AND ISZERO PUSH2 0x1484 JUMPI DUP6 MLOAD ISZERO PUSH2 0x142F JUMPI DUP5 MLOAD ISZERO PUSH2 0x13DE JUMPI PUSH1 0x64 CALLDATALOAD ISZERO PUSH2 0x1393 JUMPI POP POP PUSH2 0xDEE PUSH1 0x9 SLOAD PUSH2 0x1AD0 JUMP JUMPDEST SWAP3 DUP4 PUSH1 0x9 SSTORE PUSH2 0xE1B PUSH2 0xE15 DUP6 PUSH1 0x0 MSTORE PUSH1 0x2 PUSH1 0x20 MSTORE PUSH1 0x1 DUP1 PUSH1 0xA0 SHL SUB PUSH1 0x40 PUSH1 0x0 KECCAK256 SLOAD AND ISZERO ISZERO SWAP1 JUMP JUMPDEST ISZERO PUSH2 0x1AF5 JUMP JUMPDEST PUSH1 0x0 DUP5 DUP2 MSTORE PUSH1 0x2 PUSH1 0x20 MSTORE PUSH1 0x40 SWAP1 KECCAK256 SLOAD PUSH2 0xE3E SWAP1 PUSH1 0x1 PUSH1 0x1 PUSH1 0xA0 SHL SUB AND ISZERO ISZERO PUSH2 0xE15 JUMP JUMPDEST PUSH1 0x1 PUSH1 0x1 PUSH1 0xA0 SHL SUB DUP4 AND PUSH1 0x0 DUP2 DUP2 MSTORE PUSH1 0x3 PUSH1 0x20 SWAP1 DUP2 MSTORE PUSH1 0x40 DUP1 DUP4 KECCAK256 DUP1 SLOAD PUSH1 0x1 ADD SWAP1 SSTORE DUP8 DUP4 MSTORE PUSH1 0x2 SWAP1 SWAP2 MSTORE DUP2 KECCAK256 DUP1 SLOAD PUSH1 0x1 PUSH1 0x1 PUSH1 0xA0 SHL SUB NOT AND DUP4 OR SWAP1 SSTORE DUP6 SWAP2 SWAP1 PUSH32 0xDDF252AD1BE2C89B69C2B068FC378DAA952BA7F163C4A11628F55A4DF523B3EF DUP2 DUP1 LOG4 PUSH2 0xEAB DUP3 DUP6 PUSH2 0x1B41 JUMP JUMPDEST PUSH1 0x40 MLOAD PUSH2 0xEB7 DUP2 PUSH2 0x1820 JUMP JUMPDEST DUP6 DUP2 MSTORE DUP2 PUSH1 0x20 DUP3 ADD MSTORE TIMESTAMP PUSH1 0x40 DUP3 ADD MSTORE PUSH1 0x64 CALLDATALOAD PUSH1 0x60 DUP3 ADD MSTORE DUP3 PUSH1 0x80 DUP3 ADD MSTORE PUSH1 0x1 PUSH1 0xA0 DUP3 ADD MSTORE DUP5 PUSH1 0x0 MSTORE PUSH1 0xA PUSH1 0x20 MSTORE PUSH1 0x40 PUSH1 0x0 KECCAK256 SWAP1 DUP1 MLOAD DUP1 MLOAD SWAP1 PUSH1 0x1 PUSH1 0x1 PUSH1 0x40 SHL SUB DUP3 GT PUSH2 0x50A JUMPI DUP2 SWAP1 PUSH2 0xF09 DUP6 SLOAD PUSH2 0x194C JUMP JUMPDEST PUSH1 0x1F DUP2 GT PUSH2 0x1343 JUMPI JUMPDEST POP PUSH1 0x20 SWAP1 PUSH1 0x1F DUP4 GT PUSH1 0x1 EQ PUSH2 0x12D7 JUMPI PUSH1 0x0 SWAP3 PUSH2 0x12CC JUMPI JUMPDEST POP POP DUP2 PUSH1 0x1 SHL SWAP2 PUSH1 0x0 NOT SWAP1 PUSH1 0x3 SHL SHR NOT AND OR DUP3 SSTORE JUMPDEST PUSH1 0x20 DUP2 ADD MLOAD DUP1 MLOAD SWAP1 PUSH1 0x1 PUSH1 0x1 PUSH1 0x40 SHL SUB DUP3 GT PUSH2 0x50A JUMPI DUP2 SWAP1 PUSH2 0xF63 PUSH1 0x1 DUP7 ADD SLOAD PUSH2 0x194C JUMP JUMPDEST PUSH1 0x1F DUP2 GT PUSH2 0x1279 JUMPI JUMPDEST POP PUSH1 0x20 SWAP1 PUSH1 0x1F DUP4 GT PUSH1 0x1 EQ PUSH2 0x1207 JUMPI PUSH1 0x0 SWAP3 PUSH2 0x11FC JUMPI JUMPDEST POP POP DUP2 PUSH1 0x1 SHL SWAP2 PUSH1 0x0 NOT SWAP1 PUSH1 0x3 SHL SHR NOT AND OR PUSH1 0x1 DUP4 ADD SSTORE JUMPDEST PUSH1 0x40 DUP2 ADD MLOAD PUSH1 0x2 DUP4 ADD SSTORE PUSH1 0x60 DUP2 ADD MLOAD PUSH1 0x3 DUP4 ADD SSTORE PUSH1 0x80 DUP2 ADD MLOAD DUP1 MLOAD SWAP1 PUSH1 0x1 PUSH1 0x1 PUSH1 0x40 SHL SUB DUP3 GT PUSH2 0x50A JUMPI PUSH2 0xFD2 PUSH1 0x4 DUP6 ADD SLOAD PUSH2 0x194C JUMP JUMPDEST PUSH1 0x1F DUP2 GT PUSH2 0x11B5 JUMPI JUMPDEST POP PUSH1 0x20 SWAP1 PUSH1 0x1F DUP4 GT PUSH1 0x1 EQ PUSH2 0x113C JUMPI SWAP3 DUP3 PUSH1 0x5 SWAP4 PUSH1 0xA0 SWAP4 PUSH2 0x102E SWAP8 SWAP7 PUSH1 0x0 SWAP3 PUSH2 0x1131 JUMPI JUMPDEST POP POP DUP2 PUSH1 0x1 SHL SWAP2 PUSH1 0x0 NOT SWAP1 PUSH1 0x3 SHL SHR NOT AND OR PUSH1 0x4 DUP6 ADD SSTORE JUMPDEST ADD MLOAD ISZERO ISZERO SWAP2 ADD SWAP1 PUSH1 0xFF DUP1 NOT DUP4 SLOAD AND SWAP2 ISZERO ISZERO AND OR SWAP1 SSTORE JUMP JUMPDEST PUSH1 0x1 PUSH1 0x1 PUSH1 0xA0 SHL SUB DUP4 AND PUSH1 0x0 SWAP1 DUP2 MSTORE PUSH1 0xC PUSH1 0x20 MSTORE PUSH1 0x40 SWAP1 KECCAK256 DUP1 SLOAD SWAP1 SWAP2 PUSH9 0x10000000000000000 DUP3 LT ISZERO PUSH2 0x50A JUMPI PUSH1 0x20 SWAP7 PUSH2 0x1121 PUSH2 0x10FA PUSH2 0x10ED SWAP4 PUSH2 0x109A DUP7 DUP12 SWAP9 PUSH1 0x1 PUSH32 0x82A8E5D15C6BA5DF28F8980E442FFC3D8BC06FDCFAB9DB9372E88FA6C1FD90A6 SWAP10 ADD DUP2 SSTORE PUSH2 0x18EF JUMP JUMPDEST DUP2 SLOAD SWAP1 PUSH1 0x3 SHL SWAP1 DUP10 DUP3 SHL SWAP2 PUSH1 0x0 NOT SWAP1 SHL NOT AND OR SWAP1 SSTORE PUSH1 0x40 MLOAD DUP12 DUP2 DUP7 MLOAD PUSH2 0x10C3 DUP2 DUP4 DUP6 DUP12 ADD PUSH2 0x1778 JUMP JUMPDEST DUP2 ADD PUSH1 0xD DUP2 MSTORE SUB ADD SWAP1 KECCAK256 PUSH2 0x10D7 DUP2 SLOAD PUSH2 0x1AD0 JUMP JUMPDEST SWAP1 SSTORE PUSH1 0x40 MLOAD SWAP5 DUP6 SWAP5 PUSH1 0xA0 DUP7 MSTORE PUSH1 0xA0 DUP7 ADD SWAP1 PUSH2 0x179B JUMP JUMPDEST SWAP1 DUP5 DUP3 SUB DUP13 DUP7 ADD MSTORE PUSH2 0x179B JUMP JUMPDEST TIMESTAMP PUSH1 0x40 DUP5 ADD MSTORE PUSH1 0x64 CALLDATALOAD PUSH1 0x60 DUP5 ADD MSTORE DUP3 DUP2 SUB PUSH1 0x80 DUP5 ADD MSTORE CALLER SWAP8 PUSH1 0x1 PUSH1 0x1 PUSH1 0xA0 SHL SUB AND SWAP7 PUSH2 0x179B JUMP JUMPDEST SUB SWAP1 LOG4 PUSH1 0x1 PUSH1 0x8 SSTORE PUSH1 0x40 MLOAD SWAP1 DUP2 MSTORE RETURN JUMPDEST ADD MLOAD SWAP1 POP DUP13 DUP1 PUSH2 0xFFF JUMP JUMPDEST SWAP1 PUSH1 0x4 DUP6 ADD PUSH1 0x0 MSTORE PUSH1 0x20 PUSH1 0x0 KECCAK256 SWAP2 PUSH1 0x0 JUMPDEST PUSH1 0x1F NOT DUP6 AND DUP2 LT PUSH2 0x119D JUMPI POP DUP4 PUSH1 0xA0 SWAP4 PUSH2 0x102E SWAP8 SWAP7 SWAP4 PUSH1 0x1 SWAP4 PUSH1 0x5 SWAP8 PUSH1 0x1F NOT DUP2 AND LT PUSH2 0x1184 JUMPI JUMPDEST POP POP POP DUP2 SHL ADD PUSH1 0x4 DUP6 ADD SSTORE PUSH2 0x1017 JUMP JUMPDEST ADD MLOAD PUSH1 0x0 NOT PUSH1 0xF8 DUP5 PUSH1 0x3 SHL AND SHR NOT AND SWAP1 SSTORE DUP13 DUP1 DUP1 PUSH2 0x1174 JUMP JUMPDEST SWAP2 SWAP3 PUSH1 0x20 PUSH1 0x1 DUP2 SWAP3 DUP7 DUP6 ADD MLOAD DUP2 SSTORE ADD SWAP5 ADD SWAP3 ADD PUSH2 0x114D JUMP JUMPDEST PUSH1 0x4 DUP6 ADD PUSH1 0x0 MSTORE PUSH1 0x20 PUSH1 0x0 KECCAK256 PUSH1 0x1F DUP5 ADD PUSH1 0x5 SHR DUP2 ADD PUSH1 0x20 DUP6 LT PUSH2 0x11F5 JUMPI JUMPDEST PUSH1 0x1F DUP4 ADD PUSH1 0x5 SHR DUP3 ADD DUP2 LT PUSH2 0x11E9 JUMPI POP POP PUSH2 0xFDB JUMP JUMPDEST PUSH1 0x0 DUP2 SSTORE PUSH1 0x1 ADD PUSH2 0x11D3 JUMP JUMPDEST POP DUP1 PUSH2 0x11D3 JUMP JUMPDEST ADD MLOAD SWAP1 POP DUP10 DUP1 PUSH2 0xF83 JUMP JUMPDEST SWAP3 POP PUSH1 0x1 DUP6 ADD PUSH1 0x0 MSTORE PUSH1 0x20 PUSH1 0x0 KECCAK256 SWAP1 PUSH1 0x0 SWAP4 JUMPDEST PUSH1 0x1F NOT DUP5 AND DUP6 LT PUSH2 0x125E JUMPI PUSH1 0x1 SWAP5 POP DUP4 PUSH1 0x1F NOT DUP2 AND LT PUSH2 0x1245 JUMPI JUMPDEST POP POP POP DUP2 SHL ADD PUSH1 0x1 DUP4 ADD SSTORE PUSH2 0xF9B JUMP JUMPDEST ADD MLOAD PUSH1 0x0 NOT PUSH1 0xF8 DUP5 PUSH1 0x3 SHL AND SHR NOT AND SWAP1 SSTORE DUP10 DUP1 DUP1 PUSH2 0x1235 JUMP JUMPDEST DUP2 DUP2 ADD MLOAD DUP4 SSTORE PUSH1 0x20 SWAP5 DUP6 ADD SWAP5 PUSH1 0x1 SWAP1 SWAP4 ADD SWAP3 SWAP1 SWAP2 ADD SWAP1 PUSH2 0x121A JUMP JUMPDEST SWAP1 SWAP2 POP PUSH1 0x1 DUP6 ADD PUSH1 0x0 MSTORE PUSH1 0x20 PUSH1 0x0 KECCAK256 PUSH1 0x1F DUP5 ADD PUSH1 0x5 SHR DUP2 ADD PUSH1 0x20 DUP6 LT PUSH2 0x12C5 JUMPI JUMPDEST SWAP1 DUP5 SWAP4 SWAP3 SWAP2 JUMPDEST PUSH1 0x1F DUP4 ADD PUSH1 0x5 SHR DUP3 ADD DUP2 LT PUSH2 0x12B6 JUMPI POP POP PUSH2 0xF6C JUMP JUMPDEST PUSH1 0x0 DUP2 SSTORE DUP6 SWAP5 POP PUSH1 0x1 ADD PUSH2 0x12A0 JUMP JUMPDEST POP DUP1 PUSH2 0x129A JUMP JUMPDEST ADD MLOAD SWAP1 POP DUP10 DUP1 PUSH2 0xF29 JUMP JUMPDEST SWAP3 POP DUP5 PUSH1 0x0 MSTORE PUSH1 0x20 PUSH1 0x0 KECCAK256 SWAP1 PUSH1 0x0 SWAP4 JUMPDEST PUSH1 0x1F NOT DUP5 AND DUP6 LT PUSH2 0x1328 JUMPI PUSH1 0x1 SWAP5 POP DUP4 PUSH1 0x1F NOT DUP2 AND LT PUSH2 0x130F JUMPI JUMPDEST POP POP POP DUP2 SHL ADD DUP3 SSTORE PUSH2 0xF3E JUMP JUMPDEST ADD MLOAD PUSH1 0x0 NOT PUSH1 0xF8 DUP5 PUSH1 0x3 SHL AND SHR NOT AND SWAP1 SSTORE DUP10 DUP1 DUP1 PUSH2 0x1302 JUMP JUMPDEST DUP2 DUP2 ADD MLOAD DUP4 SSTORE PUSH1 0x20 SWAP5 DUP6 ADD SWAP5 PUSH1 0x1 SWAP1 SWAP4 ADD SWAP3 SWAP1 SWAP2 ADD SWAP1 PUSH2 0x12E7 JUMP JUMPDEST SWAP1 SWAP2 POP DUP5 PUSH1 0x0 MSTORE PUSH1 0x20 PUSH1 0x0 KECCAK256 PUSH1 0x1F DUP5 ADD PUSH1 0x5 SHR DUP2 ADD PUSH1 0x20 DUP6 LT PUSH2 0x138C JUMPI JUMPDEST SWAP1 DUP5 SWAP4 SWAP3 SWAP2 JUMPDEST PUSH1 0x1F DUP4 ADD PUSH1 0x5 SHR DUP3 ADD DUP2 LT PUSH2 0x137D JUMPI POP POP PUSH2 0xF12 JUMP JUMPDEST PUSH1 0x0 DUP2 SSTORE DUP6 SWAP5 POP PUSH1 0x1 ADD PUSH2 0x1367 JUMP JUMPDEST POP DUP1 PUSH2 0x1361 JUMP JUMPDEST PUSH32 0x566572697461735342543A20496E76616C6964206D6574616461746120686173 PUSH1 0x40 MLOAD SWAP2 PUSH3 0x461BCD PUSH1 0xE5 SHL DUP4 MSTORE PUSH1 0x20 PUSH1 0x4 DUP5 ADD MSTORE PUSH1 0x21 PUSH1 0x24 DUP5 ADD MSTORE DUP3 ADD MSTORE PUSH1 0xD PUSH1 0xFB SHL PUSH1 0x64 DUP3 ADD MSTORE REVERT JUMPDEST PUSH32 0x566572697461735342543A20497373756572206E616D652063616E6E6F742062 PUSH1 0x40 MLOAD SWAP2 PUSH3 0x461BCD PUSH1 0xE5 SHL DUP4 MSTORE PUSH1 0x20 PUSH1 0x4 DUP5 ADD MSTORE PUSH1 0x27 PUSH1 0x24 DUP5 ADD MSTORE DUP3 ADD MSTORE PUSH7 0x6520656D707479 PUSH1 0xC8 SHL PUSH1 0x64 DUP3 ADD MSTORE REVERT JUMPDEST PUSH32 0x566572697461735342543A2043726564656E7469616C20747970652063616E6E PUSH1 0x40 MLOAD SWAP2 PUSH3 0x461BCD PUSH1 0xE5 SHL DUP4 MSTORE PUSH1 0x20 PUSH1 0x4 DUP5 ADD MSTORE PUSH1 0x2B PUSH1 0x24 DUP5 ADD MSTORE DUP3 ADD MSTORE PUSH11 0x6F7420626520656D707479 PUSH1 0xA8 SHL PUSH1 0x64 DUP3 ADD MSTORE REVERT JUMPDEST PUSH32 0x566572697461735342543A20496E76616C696420726563697069656E74206164 PUSH1 0x40 MLOAD SWAP2 PUSH3 0x461BCD PUSH1 0xE5 SHL DUP4 MSTORE PUSH1 0x20 PUSH1 0x4 DUP5 ADD MSTORE PUSH1 0x25 PUSH1 0x24 DUP5 ADD MSTORE DUP3 ADD MSTORE PUSH5 0x6472657373 PUSH1 0xD8 SHL PUSH1 0x64 DUP3 ADD MSTORE REVERT JUMPDEST PUSH1 0x64 SWAP1 PUSH32 0x5265656E7472616E637947756172643A207265656E7472616E742063616C6C00 PUSH1 0x40 MLOAD SWAP2 PUSH3 0x461BCD PUSH1 0xE5 SHL DUP4 MSTORE PUSH1 0x20 PUSH1 0x4 DUP5 ADD MSTORE PUSH1 0x1F PUSH1 0x24 DUP5 ADD MSTORE DUP3 ADD MSTORE REVERT JUMPDEST PUSH32 0x566572697461735342543A204E6F7420612077686974656C6973746564206973 PUSH1 0x40 MLOAD SWAP2 PUSH3 0x461BCD PUSH1 0xE5 SHL DUP4 MSTORE PUSH1 0x20 PUSH1 0x4 DUP5 ADD MSTORE PUSH1 0x24 DUP1 DUP5 ADD MSTORE DUP3 ADD MSTORE PUSH4 0x39BAB2B9 PUSH1 0xE1 SHL PUSH1 0x64 DUP3 ADD MSTORE REVERT JUMPDEST CALLVALUE PUSH2 0x21C JUMPI PUSH1 0x0 CALLDATASIZE PUSH1 0x3 NOT ADD SLT PUSH2 0x21C JUMPI PUSH1 0x20 PUSH1 0x9 SLOAD PUSH1 0x40 MLOAD SWAP1 DUP2 MSTORE RETURN JUMPDEST CALLVALUE PUSH2 0x21C JUMPI PUSH1 0x40 CALLDATASIZE PUSH1 0x3 NOT ADD SLT PUSH2 0x21C JUMPI PUSH2 0x159B PUSH2 0x17C0 JUMP JUMPDEST POP PUSH1 0x40 MLOAD PUSH3 0x461BCD PUSH1 0xE5 SHL DUP2 MSTORE PUSH1 0x20 PUSH1 0x4 DUP3 ADD MSTORE PUSH1 0x2F PUSH1 0x24 DUP3 ADD MSTORE PUSH32 0x566572697461735342543A20536F756C626F756E6420746F6B656E732063616E PUSH1 0x44 DUP3 ADD MSTORE PUSH15 0x1B9BDD08189948185C1C1C9BDD9959 PUSH1 0x8A SHL PUSH1 0x64 DUP3 ADD MSTORE PUSH1 0x84 SWAP1 REVERT JUMPDEST CALLVALUE PUSH2 0x21C JUMPI PUSH1 0x20 CALLDATASIZE PUSH1 0x3 NOT ADD SLT PUSH2 0x21C JUMPI PUSH1 0x4 CALLDATALOAD PUSH1 0x0 DUP2 DUP2 MSTORE PUSH1 0x2 PUSH1 0x20 MSTORE PUSH1 0x40 SWAP1 KECCAK256 SLOAD PUSH2 0x1630 SWAP1 PUSH1 0x1 PUSH1 0x1 PUSH1 0xA0 SHL SUB AND ISZERO ISZERO PUSH2 0x1A84 JUMP JUMPDEST PUSH1 0x0 MSTORE PUSH1 0x4 PUSH1 0x20 MSTORE PUSH1 0x20 PUSH1 0x1 DUP1 PUSH1 0xA0 SHL SUB PUSH1 0x40 PUSH1 0x0 KECCAK256 SLOAD AND PUSH1 0x40 MLOAD SWAP1 DUP2 MSTORE RETURN JUMPDEST CALLVALUE PUSH2 0x21C JUMPI PUSH1 0x0 CALLDATASIZE PUSH1 0x3 NOT ADD SLT PUSH2 0x21C JUMPI PUSH1 0x40 MLOAD PUSH1 0x0 DUP1 SLOAD PUSH2 0x1671 DUP2 PUSH2 0x194C JUMP JUMPDEST DUP1 DUP5 MSTORE SWAP1 PUSH1 0x1 SWAP1 DUP2 DUP2 AND SWAP1 DUP2 ISZERO PUSH2 0x752 JUMPI POP PUSH1 0x1 EQ PUSH2 0x169A JUMPI PUSH2 0x506 DUP5 PUSH2 0x6E5 DUP2 DUP7 SUB DUP3 PUSH2 0x183B JUMP JUMPDEST PUSH1 0x0 DUP1 DUP1 MSTORE SWAP3 POP PUSH32 0x290DECD9548B62A8D60345A988386FC84BA6BC95484008F6362F93160EF3E563 JUMPDEST DUP3 DUP5 LT PUSH2 0x16DB JUMPI POP POP POP DUP2 ADD PUSH1 0x20 ADD PUSH2 0x6E5 DUP3 PUSH2 0x6D5 JUMP JUMPDEST DUP1 SLOAD PUSH1 0x20 DUP6 DUP8 ADD DUP2 ADD SWAP2 SWAP1 SWAP2 MSTORE SWAP1 SWAP4 ADD SWAP3 DUP2 ADD PUSH2 0x16C3 JUMP JUMPDEST CALLVALUE PUSH2 0x21C JUMPI PUSH1 0x20 CALLDATASIZE PUSH1 0x3 NOT ADD SLT PUSH2 0x21C JUMPI PUSH1 0x4 CALLDATALOAD SWAP1 PUSH4 0xFFFFFFFF PUSH1 0xE0 SHL DUP3 AND DUP1 SWAP3 SUB PUSH2 0x21C JUMPI PUSH1 0x20 SWAP2 PUSH4 0x24832483 PUSH1 0xE1 SHL DUP2 EQ SWAP1 DUP2 ISZERO PUSH2 0x1735 JUMPI JUMPDEST POP ISZERO ISZERO DUP2 MSTORE RETURN JUMPDEST PUSH4 0x80AC58CD PUSH1 0xE0 SHL DUP2 EQ SWAP2 POP DUP2 ISZERO PUSH2 0x1767 JUMPI JUMPDEST DUP2 ISZERO PUSH2 0x1756 JUMPI JUMPDEST POP DUP4 PUSH2 0x172E JUMP JUMPDEST PUSH4 0x1FFC9A7 PUSH1 0xE0 SHL EQ SWAP1 POP DUP4 PUSH2 0x174F JUMP JUMPDEST PUSH4 0x5B5E139F PUSH1 0xE0 SHL DUP2 EQ SWAP2 POP PUSH2 0x1748 JUMP JUMPDEST PUSH1 0x0 JUMPDEST DUP4 DUP2 LT PUSH2 0x178B JUMPI POP POP PUSH1 0x0 SWAP2 ADD MSTORE JUMP JUMPDEST DUP2 DUP2 ADD MLOAD DUP4 DUP3 ADD MSTORE PUSH1 0x20 ADD PUSH2 0x177B JUMP JUMPDEST SWAP1 PUSH1 0x20 SWAP2 PUSH2 0x17B4 DUP2 MLOAD DUP1 SWAP3 DUP2 DUP6 MSTORE DUP6 DUP1 DUP7 ADD SWAP2 ADD PUSH2 0x1778 JUMP JUMPDEST PUSH1 0x1F ADD PUSH1 0x1F NOT AND ADD ADD SWAP1 JUMP JUMPDEST PUSH1 0x4 CALLDATALOAD SWAP1 PUSH1 0x1 PUSH1 0x1 PUSH1 0xA0 SHL SUB DUP3 AND DUP3 SUB PUSH2 0x21C JUMPI JUMP JUMPDEST PUSH1 0x24 CALLDATALOAD SWAP1 PUSH1 0x1 PUSH1 0x1 PUSH1 0xA0 SHL SUB DUP3 AND DUP3 SUB PUSH2 0x21C JUMPI JUMP JUMPDEST CALLVALUE PUSH2 0x21C JUMPI PUSH1 0x60 CALLDATASIZE PUSH1 0x3 NOT ADD SLT PUSH2 0x21C JUMPI PUSH1 0x1 PUSH1 0x1 PUSH1 0xA0 SHL SUB PUSH1 0x4 CALLDATALOAD DUP2 DUP2 AND SUB PUSH2 0x21C JUMPI PUSH1 0x24 CALLDATALOAD SWAP1 DUP2 AND EQ PUSH2 0x1D7A JUMPI PUSH1 0x0 DUP1 REVERT JUMPDEST PUSH1 0xC0 DUP2 ADD SWAP1 DUP2 LT PUSH1 0x1 PUSH1 0x1 PUSH1 0x40 SHL SUB DUP3 GT OR PUSH2 0x50A JUMPI PUSH1 0x40 MSTORE JUMP JUMPDEST SWAP1 PUSH1 0x1F DUP1 NOT SWAP2 ADD AND DUP2 ADD SWAP1 DUP2 LT PUSH1 0x1 PUSH1 0x1 PUSH1 0x40 SHL SUB DUP3 GT OR PUSH2 0x50A JUMPI PUSH1 0x40 MSTORE JUMP JUMPDEST SWAP3 SWAP2 SWAP3 PUSH1 0x1 PUSH1 0x1 PUSH1 0x40 SHL SUB DUP3 GT PUSH2 0x50A JUMPI PUSH1 0x40 MLOAD SWAP2 PUSH2 0x1885 PUSH1 0x1F DUP3 ADD PUSH1 0x1F NOT AND PUSH1 0x20 ADD DUP5 PUSH2 0x183B JUMP JUMPDEST DUP3 SWAP5 DUP2 DUP5 MSTORE DUP2 DUP4 ADD GT PUSH2 0x21C JUMPI DUP3 DUP2 PUSH1 0x20 SWAP4 DUP5 PUSH1 0x0 SWAP7 ADD CALLDATACOPY ADD ADD MSTORE JUMP JUMPDEST SWAP1 DUP1 PUSH1 0x1F DUP4 ADD SLT ISZERO PUSH2 0x21C JUMPI DUP2 PUSH1 0x20 PUSH2 0x18BD SWAP4 CALLDATALOAD SWAP2 ADD PUSH2 0x185C JUMP JUMPDEST SWAP1 JUMP JUMPDEST SWAP1 PUSH1 0x40 PUSH1 0x3 NOT DUP4 ADD SLT PUSH2 0x21C JUMPI PUSH1 0x4 CALLDATALOAD SWAP2 PUSH1 0x24 CALLDATALOAD SWAP1 PUSH1 0x1 PUSH1 0x1 PUSH1 0x40 SHL SUB DUP3 GT PUSH2 0x21C JUMPI PUSH2 0x18BD SWAP2 PUSH1 0x4 ADD PUSH2 0x18A2 JUMP JUMPDEST DUP1 SLOAD DUP3 LT ISZERO PUSH2 0x1907 JUMPI PUSH1 0x0 MSTORE PUSH1 0x20 PUSH1 0x0 KECCAK256 ADD SWAP1 PUSH1 0x0 SWAP1 JUMP JUMPDEST PUSH4 0x4E487B71 PUSH1 0xE0 SHL PUSH1 0x0 MSTORE PUSH1 0x32 PUSH1 0x4 MSTORE PUSH1 0x24 PUSH1 0x0 REVERT JUMPDEST PUSH1 0x40 SWAP1 PUSH1 0x3 NOT ADD SLT PUSH2 0x21C JUMPI PUSH1 0x4 CALLDATALOAD PUSH1 0x1 PUSH1 0x1 PUSH1 0xA0 SHL SUB DUP2 AND DUP2 SUB PUSH2 0x21C JUMPI SWAP1 PUSH1 0x24 CALLDATALOAD DUP1 ISZERO ISZERO DUP2 SUB PUSH2 0x21C JUMPI SWAP1 JUMP JUMPDEST SWAP1 PUSH1 0x1 DUP3 DUP2 SHR SWAP3 AND DUP1 ISZERO PUSH2 0x197C JUMPI JUMPDEST PUSH1 0x20 DUP4 LT EQ PUSH2 0x1966 JUMPI JUMP JUMPDEST PUSH4 0x4E487B71 PUSH1 0xE0 SHL PUSH1 0x0 MSTORE PUSH1 0x22 PUSH1 0x4 MSTORE PUSH1 0x24 PUSH1 0x0 REVERT JUMPDEST SWAP2 PUSH1 0x7F AND SWAP2 PUSH2 0x195B JUMP JUMPDEST SWAP1 PUSH1 0x40 MLOAD SWAP2 DUP3 PUSH1 0x0 DUP3 SLOAD SWAP3 PUSH2 0x199A DUP5 PUSH2 0x194C JUMP JUMPDEST SWAP1 DUP2 DUP5 MSTORE PUSH1 0x1 SWAP5 DUP6 DUP2 AND SWAP1 DUP2 PUSH1 0x0 EQ PUSH2 0x1A09 JUMPI POP PUSH1 0x1 EQ PUSH2 0x19C6 JUMPI JUMPDEST POP POP PUSH2 0x19C4 SWAP3 POP SUB DUP4 PUSH2 0x183B JUMP JUMPDEST JUMP JUMPDEST SWAP1 SWAP4 SWAP2 POP PUSH1 0x0 MSTORE PUSH1 0x20 SWAP1 DUP2 PUSH1 0x0 KECCAK256 SWAP4 PUSH1 0x0 SWAP2 JUMPDEST DUP2 DUP4 LT PUSH2 0x19F1 JUMPI POP POP PUSH2 0x19C4 SWAP4 POP DUP3 ADD ADD CODESIZE DUP1 PUSH2 0x19B6 JUMP JUMPDEST DUP6 SLOAD DUP9 DUP5 ADD DUP6 ADD MSTORE SWAP5 DUP6 ADD SWAP5 DUP8 SWAP5 POP SWAP2 DUP4 ADD SWAP2 PUSH2 0x19D9 JUMP JUMPDEST SWAP2 POP POP PUSH2 0x19C4 SWAP5 POP PUSH1 0x20 SWAP3 POP PUSH1 0xFF NOT AND DUP3 DUP5 ADD MSTORE ISZERO ISZERO PUSH1 0x5 SHL DUP3 ADD ADD CODESIZE DUP1 PUSH2 0x19B6 JUMP JUMPDEST PUSH1 0x7 SLOAD PUSH1 0x1 PUSH1 0x1 PUSH1 0xA0 SHL SUB AND CALLER SUB PUSH2 0x1A40 JUMPI JUMP JUMPDEST PUSH1 0x64 PUSH1 0x40 MLOAD PUSH3 0x461BCD PUSH1 0xE5 SHL DUP2 MSTORE PUSH1 0x20 PUSH1 0x4 DUP3 ADD MSTORE PUSH1 0x20 PUSH1 0x24 DUP3 ADD MSTORE PUSH32 0x4F776E61626C653A2063616C6C6572206973206E6F7420746865206F776E6572 PUSH1 0x44 DUP3 ADD MSTORE REVERT JUMPDEST ISZERO PUSH2 0x1A8B JUMPI JUMP JUMPDEST PUSH1 0x40 MLOAD PUSH3 0x461BCD PUSH1 0xE5 SHL DUP2 MSTORE PUSH1 0x20 PUSH1 0x4 DUP3 ADD MSTORE PUSH1 0x18 PUSH1 0x24 DUP3 ADD MSTORE PUSH32 0x4552433732313A20696E76616C696420746F6B656E2049440000000000000000 PUSH1 0x44 DUP3 ADD MSTORE PUSH1 0x64 SWAP1 REVERT JUMPDEST PUSH1 0x0 NOT DUP2 EQ PUSH2 0x1ADF JUMPI PUSH1 0x1 ADD SWAP1 JUMP JUMPDEST PUSH4 0x4E487B71 PUSH1 0xE0 SHL PUSH1 0x0 MSTORE PUSH1 0x11 PUSH1 0x4 MSTORE PUSH1 0x24 PUSH1 0x0 REVERT JUMPDEST ISZERO PUSH2 0x1AFC JUMPI JUMP JUMPDEST PUSH1 0x40 MLOAD PUSH3 0x461BCD PUSH1 0xE5 SHL DUP2 MSTORE PUSH1 0x20 PUSH1 0x4 DUP3 ADD MSTORE PUSH1 0x1C PUSH1 0x24 DUP3 ADD MSTORE PUSH32 0x4552433732313A20746F6B656E20616C7265616479206D696E74656400000000 PUSH1 0x44 DUP3 ADD MSTORE PUSH1 0x64 SWAP1 REVERT JUMPDEST PUSH1 0x0 DUP2 DUP2 MSTORE PUSH1 0x2 PUSH1 0x20 MSTORE PUSH1 0x40 SWAP1 KECCAK256 SLOAD SWAP2 SWAP3 SWAP2 PUSH1 0x1 PUSH1 0x1 PUSH1 0xA0 SHL SUB AND ISZERO PUSH2 0x1CD3 JUMPI PUSH1 0x0 SWAP1 DUP1 DUP3 MSTORE PUSH1 0x20 SWAP2 PUSH1 0x6 DUP4 MSTORE PUSH1 0x40 DUP2 KECCAK256 SWAP1 DUP6 MLOAD SWAP1 PUSH1 0x1 PUSH1 0x1 PUSH1 0x40 SHL SUB DUP3 GT PUSH2 0x1CBF JUMPI PUSH2 0x1B8E DUP4 SLOAD PUSH2 0x194C JUMP JUMPDEST PUSH1 0x1F DUP2 GT PUSH2 0x1C7C JUMPI JUMPDEST POP DUP5 SWAP1 PUSH1 0x1F DUP4 GT PUSH1 0x1 EQ PUSH2 0x1BF8 JUMPI SWAP1 PUSH32 0xF8E1A15ABA9398E019F0B49DF1A4FDE98EE17AE345CB5F6B5E2C27F5033E8CE7 SWAP7 SWAP8 DUP4 PUSH2 0x1BED JUMPI JUMPDEST POP POP DUP2 PUSH1 0x1 SHL SWAP2 PUSH1 0x0 NOT SWAP1 PUSH1 0x3 SHL SHR NOT AND OR SWAP1 SSTORE JUMPDEST PUSH1 0x40 MLOAD SWAP1 DUP2 MSTORE LOG1 JUMP JUMPDEST ADD MLOAD SWAP1 POP CODESIZE DUP1 PUSH2 0x1BCF JUMP JUMPDEST SWAP2 SWAP7 PUSH1 0x1F NOT DUP9 AND DUP5 DUP5 MSTORE DUP7 DUP5 KECCAK256 SWAP4 JUMPDEST DUP2 DUP2 LT PUSH2 0x1C65 JUMPI POP SWAP2 PUSH1 0x1 SWAP4 SWAP2 DUP10 PUSH32 0xF8E1A15ABA9398E019F0B49DF1A4FDE98EE17AE345CB5F6B5E2C27F5033E8CE7 SWAP10 SWAP11 SWAP5 LT PUSH2 0x1C4C JUMPI JUMPDEST POP POP POP DUP2 SHL ADD SWAP1 SSTORE PUSH2 0x1BE4 JUMP JUMPDEST ADD MLOAD PUSH1 0x0 NOT PUSH1 0xF8 DUP5 PUSH1 0x3 SHL AND SHR NOT AND SWAP1 SSTORE CODESIZE DUP1 DUP1 PUSH2 0x1C3F JUMP JUMPDEST SWAP3 SWAP4 DUP8 PUSH1 0x1 DUP2 SWAP3 DUP8 DUP7 ADD MLOAD DUP2 SSTORE ADD SWAP6 ADD SWAP4 ADD PUSH2 0x1C07 JUMP JUMPDEST DUP4 DUP3 MSTORE DUP6 DUP3 KECCAK256 PUSH1 0x1F DUP5 ADD PUSH1 0x5 SHR DUP2 ADD SWAP2 DUP8 DUP6 LT PUSH2 0x1CB5 JUMPI JUMPDEST PUSH1 0x1F ADD PUSH1 0x5 SHR ADD SWAP1 JUMPDEST DUP2 DUP2 LT PUSH2 0x1CAA JUMPI POP PUSH2 0x1B97 JUMP JUMPDEST DUP3 DUP2 SSTORE PUSH1 0x1 ADD PUSH2 0x1C9D JUMP JUMPDEST SWAP1 SWAP2 POP DUP2 SWAP1 PUSH2 0x1C94 JUMP JUMPDEST PUSH4 0x4E487B71 PUSH1 0xE0 SHL DUP2 MSTORE PUSH1 0x41 PUSH1 0x4 MSTORE PUSH1 0x24 SWAP1 REVERT JUMPDEST PUSH1 0x40 MLOAD PUSH3 0x461BCD PUSH1 0xE5 SHL DUP2 MSTORE PUSH1 0x20 PUSH1 0x4 DUP3 ADD MSTORE PUSH1 0x2E PUSH1 0x24 DUP3 ADD MSTORE PUSH32 0x45524337323155524953746F726167653A2055524920736574206F66206E6F6E PUSH1 0x44 DUP3 ADD MSTORE PUSH14 0x32BC34B9BA32B73A103A37B5B2B7 PUSH1 0x91 SHL PUSH1 0x64 DUP3 ADD MSTORE PUSH1 0x84 SWAP1 REVERT JUMPDEST ISZERO PUSH2 0x1D36 JUMPI JUMP JUMPDEST PUSH1 0x64 PUSH1 0x40 MLOAD PUSH3 0x461BCD PUSH1 0xE5 SHL DUP2 MSTORE PUSH1 0x20 PUSH1 0x4 DUP3 ADD MSTORE PUSH1 0x20 PUSH1 0x24 DUP3 ADD MSTORE PUSH32 0x566572697461735342543A20546F6B656E20646F6573206E6F74206578697374 PUSH1 0x44 DUP3 ADD MSTORE REVERT JUMPDEST PUSH1 0x40 MLOAD PUSH3 0x461BCD PUSH1 0xE5 SHL DUP2 MSTORE PUSH1 0x20 PUSH1 0x4 DUP3 ADD MSTORE PUSH1 0x32 PUSH1 0x24 DUP3 ADD MSTORE PUSH32 0x566572697461735342543A20536F756C626F756E6420746F6B656E732063616E PUSH1 0x44 DUP3 ADD MSTORE PUSH18 0x1B9BDD081899481D1C985B9CD9995C9C9959 PUSH1 0x72 SHL PUSH1 0x64 DUP3 ADD MSTORE PUSH1 0x84 SWAP1 REVERT INVALID LOG2 PUSH5 0x6970667358 0x22 SLT KECCAK256 ADDMOD 0x27 SDIV RETURN SHL GASLIMIT 0xCA PUSH26 0x8803559646CB363416C752C2B203F835B84114FC0088006473 PUSH16 0x6C634300081300330000000000000000 "},"methodIdentifiers":{"approve(address,uint256)":"095ea7b3","balanceOf(address)":"70a08231","credentialTypeCount(string)":"c9174b1f","credentials(uint256)":"e0574e3f","getApproved(uint256)":"081812fc","getCredential(uint256)":"8dd18d2d","getCredentialTypeCount(string)":"b9565fbd","getUserCredentials(address)":"c76d2919","isApprovedForAll(address,address)":"e985e9c5","mintCredential(address,string,string,bytes32,string)":"2672a359","name()":"06fdde03","owner()":"8da5cb5b","ownerOf(uint256)":"6352211e","renounceOwnership()":"715018a6","revokeCredential(uint256,string)":"957a3205","safeTransferFrom(address,address,uint256)":"42842e0e","safeTransferFrom(address,address,uint256,bytes)":"b88d4fde","setApprovalForAll(address,bool)":"a22cb465","setIssuerWhitelist(address,bool)":"f1880733","supportsInterface(bytes4)":"01ffc9a7","symbol()":"95d89b41","tokenURI(uint256)":"c87b56dd","totalSupply()":"18160ddd","transferFrom(address,address,uint256)":"23b872dd","transferOwnership(address)":"f2fde38b","updateMetadataURI(uint256,string)":"8fe86b3f","userCredentials(address,uint256)":"9364ace9","whitelistedIssuers(address)":"d61c0e78"}}}}}