{
  "_format": "hh-sol-artifact-1",
  "contractName": "VeritasZKVerifier",
  "sourceName": "contracts/VeritasZKVerifier.sol",
  "abi": [
    {
      "inputs": [],
      "stateMutability": "nonpayable",
      "type": "constructor"
    },
    {
      "anonymous": false,
      "inputs": [
        {
          "indexed": true,
          "internalType": "address",
          "name": "previousOwner",
          "type": "address"
        },
        {
          "indexed": true,
          "internalType": "address",
          "name": "newOwner",
          "type": "address"
        }
      ],
      "name": "OwnershipTransferred",
      "type": "event"
    },
    {
      "anonymous": false,
      "inputs": [
        {
          "indexed": true,
          "internalType": "bytes32",
          "name": "requestId",
          "type": "bytes32"
        },
        {
          "indexed": true,
          "internalType": "address",
          "name": "requester",
          "type": "address"
        },
        {
          "indexed": false,
          "internalType": "string[]",
          "name": "requiredCredentials",
          "type": "string[]"
        },
        {
          "indexed": false,
          "internalType": "bytes32",
          "name": "criteriaHash",
          "type": "bytes32"
        },
        {
          "indexed": false,
          "internalType": "bytes32",
          "name": "merkleRoot",
          "type": "bytes32"
        },
        {
          "indexed": false,
          "internalType": "uint256",
          "name": "minCredentials",
          "type": "uint256"
        },
        {
          "indexed": false,
          "internalType": "uint256",
          "name": "expiryTime",
          "type": "uint256"
        }
      ],
      "name": "ProofRequestCreated",
      "type": "event"
    },
    {
      "anonymous": false,
      "inputs": [
        {
          "indexed": true,
          "internalType": "bytes32",
          "name": "requestId",
          "type": "bytes32"
        }
      ],
      "name": "ProofRequestExpired",
      "type": "event"
    },
    {
      "anonymous": false,
      "inputs": [
        {
          "indexed": true,
          "internalType": "address",
          "name": "updater",
          "type": "address"
        }
      ],
      "name": "VerificationKeyUpdated",
      "type": "event"
    },
    {
      "anonymous": false,
      "inputs": [
        {
          "indexed": false,
          "internalType": "bool",
          "name": "enabled",
          "type": "bool"
        }
      ],
      "name": "VerificationStatusChanged",
      "type": "event"
    },
    {
      "anonymous": false,
      "inputs": [
        {
          "indexed": true,
          "internalType": "bytes32",
          "name": "proofId",
          "type": "bytes32"
        },
        {
          "indexed": true,
          "internalType": "bytes32",
          "name": "requestId",
          "type": "bytes32"
        },
        {
          "indexed": true,
          "internalType": "address",
          "name": "prover",
          "type": "address"
        },
        {
          "indexed": false,
          "internalType": "bytes32",
          "name": "proofHash",
          "type": "bytes32"
        },
        {
          "indexed": false,
          "internalType": "uint256",
          "name": "timestamp",
          "type": "uint256"
        },
        {
          "indexed": false,
          "internalType": "bool",
          "name": "success",
          "type": "bool"
        },
        {
          "indexed": false,
          "internalType": "string",
          "name": "result",
          "type": "string"
        },
        {
          "indexed": false,
          "internalType": "uint256",
          "name": "gasUsed",
          "type": "uint256"
        }
      ],
      "name": "ZKProofSubmitted",
      "type": "event"
    },
    {
      "inputs": [
        {
          "internalType": "string[]",
          "name": "requiredCredentials",
          "type": "string[]"
        },
        {
          "internalType": "bytes32",
          "name": "criteriaHash",
          "type": "bytes32"
        },
        {
          "internalType": "bytes32",
          "name": "merkleRoot",
          "type": "bytes32"
        },
        {
          "internalType": "uint256",
          "name": "minCredentials",
          "type": "uint256"
        },
        {
          "internalType": "uint256",
          "name": "customExpiryTime",
          "type": "uint256"
        }
      ],
      "name": "createProofRequest",
      "outputs": [
        {
          "internalType": "bytes32",
          "name": "",
          "type": "bytes32"
        }
      ],
      "stateMutability": "nonpayable",
      "type": "function"
    },
    {
      "inputs": [],
      "name": "defaultExpiryTime",
      "outputs": [
        {
          "internalType": "uint256",
          "name": "",
          "type": "uint256"
        }
      ],
      "stateMutability": "view",
      "type": "function"
    },
    {
      "inputs": [
        {
          "internalType": "bytes32",
          "name": "requestId",
          "type": "bytes32"
        }
      ],
      "name": "getProofRequest",
      "outputs": [
        {
          "components": [
            {
              "internalType": "bytes32",
              "name": "requestId",
              "type": "bytes32"
            },
            {
              "internalType": "address",
              "name": "requester",
              "type": "address"
            },
            {
              "internalType": "string[]",
              "name": "requiredCredentials",
              "type": "string[]"
            },
            {
              "internalType": "bytes32",
              "name": "criteriaHash",
              "type": "bytes32"
            },
            {
              "internalType": "bytes32",
              "name": "merkleRoot",
              "type": "bytes32"
            },
            {
              "internalType": "uint256",
              "name": "minCredentials",
              "type": "uint256"
            },
            {
              "internalType": "uint256",
              "name": "timestamp",
              "type": "uint256"
            },
            {
              "internalType": "uint256",
              "name": "expiryTime",
              "type": "uint256"
            },
            {
              "internalType": "bool",
              "name": "isActive",
              "type": "bool"
            }
          ],
          "internalType": "struct VeritasZKVerifier.ProofRequest",
          "name": "",
          "type": "tuple"
        }
      ],
      "stateMutability": "view",
      "type": "function"
    },
    {
      "inputs": [
        {
          "internalType": "bytes32",
          "name": "proofId",
          "type": "bytes32"
        }
      ],
      "name": "getProofSubmission",
      "outputs": [
        {
          "components": [
            {
              "internalType": "bytes32",
              "name": "proofId",
              "type": "bytes32"
            },
            {
              "internalType": "bytes32",
              "name": "requestId",
              "type": "bytes32"
            },
            {
              "internalType": "address",
              "name": "prover",
              "type": "address"
            },
            {
              "internalType": "bytes32",
              "name": "proofHash",
              "type": "bytes32"
            },
            {
              "internalType": "bytes32",
              "name": "publicInputsHash",
              "type": "bytes32"
            },
            {
              "components": [
                {
                  "internalType": "uint256[2]",
                  "name": "a",
                  "type": "uint256[2]"
                },
                {
                  "internalType": "uint256[2][2]",
                  "name": "b",
                  "type": "uint256[2][2]"
                },
                {
                  "internalType": "uint256[2]",
                  "name": "c",
                  "type": "uint256[2]"
                }
              ],
              "internalType": "struct VeritasZKVerifier.NoirProof",
              "name": "noirProof",
              "type": "tuple"
            },
            {
              "internalType": "uint256[]",
              "name": "publicInputs",
              "type": "uint256[]"
            },
            {
              "internalType": "uint256",
              "name": "timestamp",
              "type": "uint256"
            },
            {
              "internalType": "bool",
              "name": "isVerified",
              "type": "bool"
            },
            {
              "internalType": "string",
              "name": "verificationResult",
              "type": "string"
            },
            {
              "internalType": "uint256",
              "name": "gasUsed",
              "type": "uint256"
            }
          ],
          "internalType": "struct VeritasZKVerifier.ProofSubmission",
          "name": "",
          "type": "tuple"
        }
      ],
      "stateMutability": "view",
      "type": "function"
    },
    {
      "inputs": [],
      "name": "getVerificationStats",
      "outputs": [
        {
          "internalType": "uint256",
          "name": "totalRequests",
          "type": "uint256"
        },
        {
          "internalType": "uint256",
          "name": "totalSubmissions",
          "type": "uint256"
        },
        {
          "internalType": "uint256",
          "name": "successfulVerifications",
          "type": "uint256"
        }
      ],
      "stateMutability": "view",
      "type": "function"
    },
    {
      "inputs": [],
      "name": "owner",
      "outputs": [
        {
          "internalType": "address",
          "name": "",
          "type": "address"
        }
      ],
      "stateMutability": "view",
      "type": "function"
    },
    {
      "inputs": [
        {
          "internalType": "bytes32",
          "name": "",
          "type": "bytes32"
        }
      ],
      "name": "proofRequests",
      "outputs": [
        {
          "internalType": "bytes32",
          "name": "requestId",
          "type": "bytes32"
        },
        {
          "internalType": "address",
          "name": "requester",
          "type": "address"
        },
        {
          "internalType": "bytes32",
          "name": "criteriaHash",
          "type": "bytes32"
        },
        {
          "internalType": "bytes32",
          "name": "merkleRoot",
          "type": "bytes32"
        },
        {
          "internalType": "uint256",
          "name": "minCredentials",
          "type": "uint256"
        },
        {
          "internalType": "uint256",
          "name": "timestamp",
          "type": "uint256"
        },
        {
          "internalType": "uint256",
          "name": "expiryTime",
          "type": "uint256"
        },
        {
          "internalType": "bool",
          "name": "isActive",
          "type": "bool"
        }
      ],
      "stateMutability": "view",
      "type": "function"
    },
    {
      "inputs": [
        {
          "internalType": "bytes32",
          "name": "",
          "type": "bytes32"
        }
      ],
      "name": "proofSubmissions",
      "outputs": [
        {
          "internalType": "bytes32",
          "name": "proofId",
          "type": "bytes32"
        },
        {
          "internalType": "bytes32",
          "name": "requestId",
          "type": "bytes32"
        },
        {
          "internalType": "address",
          "name": "prover",
          "type": "address"
        },
        {
          "internalType": "bytes32",
          "name": "proofHash",
          "type": "bytes32"
        },
        {
          "internalType": "bytes32",
          "name": "publicInputsHash",
          "type": "bytes32"
        },
        {
          "components": [
            {
              "internalType": "uint256[2]",
              "name": "a",
              "type": "uint256[2]"
            },
            {
              "internalType": "uint256[2][2]",
              "name": "b",
              "type": "uint256[2][2]"
            },
            {
              "internalType": "uint256[2]",
              "name": "c",
              "type": "uint256[2]"
            }
          ],
          "internalType": "struct VeritasZKVerifier.NoirProof",
          "name": "noirProof",
          "type": "tuple"
        },
        {
          "internalType": "uint256",
          "name": "timestamp",
          "type": "uint256"
        },
        {
          "internalType": "bool",
          "name": "isVerified",
          "type": "bool"
        },
        {
          "internalType": "string",
          "name": "verificationResult",
          "type": "string"
        },
        {
          "internalType": "uint256",
          "name": "gasUsed",
          "type": "uint256"
        }
      ],
      "stateMutability": "view",
      "type": "function"
    },
    {
      "inputs": [],
      "name": "proofVerificationGasLimit",
      "outputs": [
        {
          "internalType": "uint256",
          "name": "",
          "type": "uint256"
        }
      ],
      "stateMutability": "view",
      "type": "function"
    },
    {
      "inputs": [],
      "name": "renounceOwnership",
      "outputs": [],
      "stateMutability": "nonpayable",
      "type": "function"
    },
    {
      "inputs": [
        {
          "internalType": "uint256",
          "name": "newExpiryTime",
          "type": "uint256"
        }
      ],
      "name": "setDefaultExpiryTime",
      "outputs": [],
      "stateMutability": "nonpayable",
      "type": "function"
    },
    {
      "inputs": [
        {
          "internalType": "uint256",
          "name": "gasLimit",
          "type": "uint256"
        }
      ],
      "name": "setProofVerificationGasLimit",
      "outputs": [],
      "stateMutability": "nonpayable",
      "type": "function"
    },
    {
      "inputs": [
        {
          "internalType": "bool",
          "name": "enabled",
          "type": "bool"
        }
      ],
      "name": "setVerificationEnabled",
      "outputs": [],
      "stateMutability": "nonpayable",
      "type": "function"
    },
    {
      "inputs": [
        {
          "components": [
            {
              "internalType": "uint256[2]",
              "name": "alpha",
              "type": "uint256[2]"
            },
            {
              "internalType": "uint256[2][2]",
              "name": "beta",
              "type": "uint256[2][2]"
            },
            {
              "internalType": "uint256[2][2]",
              "name": "gamma",
              "type": "uint256[2][2]"
            },
            {
              "internalType": "uint256[2][2]",
              "name": "delta",
              "type": "uint256[2][2]"
            },
            {
              "internalType": "uint256[][]",
              "name": "ic",
              "type": "uint256[][]"
            }
          ],
          "internalType": "struct VeritasZKVerifier.VerificationKey",
          "name": "_verificationKey",
          "type": "tuple"
        }
      ],
      "name": "setVerificationKey",
      "outputs": [],
      "stateMutability": "nonpayable",
      "type": "function"
    },
    {
      "inputs": [
        {
          "internalType": "bytes32",
          "name": "requestId",
          "type": "bytes32"
        },
        {
          "internalType": "bytes32",
          "name": "proofHash",
          "type": "bytes32"
        },
        {
          "internalType": "bytes32",
          "name": "publicInputsHash",
          "type": "bytes32"
        },
        {
          "components": [
            {
              "internalType": "uint256[2]",
              "name": "a",
              "type": "uint256[2]"
            },
            {
              "internalType": "uint256[2][2]",
              "name": "b",
              "type": "uint256[2][2]"
            },
            {
              "internalType": "uint256[2]",
              "name": "c",
              "type": "uint256[2]"
            }
          ],
          "internalType": "struct VeritasZKVerifier.NoirProof",
          "name": "noirProof",
          "type": "tuple"
        },
        {
          "internalType": "uint256[]",
          "name": "publicInputs",
          "type": "uint256[]"
        }
      ],
      "name": "submitNoirZKProof",
      "outputs": [
        {
          "internalType": "bytes32",
          "name": "",
          "type": "bytes32"
        }
      ],
      "stateMutability": "nonpayable",
      "type": "function"
    },
    {
      "inputs": [
        {
          "internalType": "address",
          "name": "newOwner",
          "type": "address"
        }
      ],
      "name": "transferOwnership",
      "outputs": [],
      "stateMutability": "nonpayable",
      "type": "function"
    },
    {
      "inputs": [
        {
          "internalType": "bytes32",
          "name": "",
          "type": "bytes32"
        }
      ],
      "name": "usedProofHashes",
      "outputs": [
        {
          "internalType": "bool",
          "name": "",
          "type": "bool"
        }
      ],
      "stateMutability": "view",
      "type": "function"
    },
    {
      "inputs": [
        {
          "internalType": "address",
          "name": "",
          "type": "address"
        },
        {
          "internalType": "uint256",
          "name": "",
          "type": "uint256"
        }
      ],
      "name": "userProofRequests",
      "outputs": [
        {
          "internalType": "bytes32",
          "name": "",
          "type": "bytes32"
        }
      ],
      "stateMutability": "view",
      "type": "function"
    },
    {
      "inputs": [
        {
          "internalType": "address",
          "name": "",
          "type": "address"
        },
        {
          "internalType": "uint256",
          "name": "",
          "type": "uint256"
        }
      ],
      "name": "userProofSubmissions",
      "outputs": [
        {
          "internalType": "bytes32",
          "name": "",
          "type": "bytes32"
        }
      ],
      "stateMutability": "view",
      "type": "function"
    },
    {
      "inputs": [],
      "name": "verificationEnabled",
      "outputs": [
        {
          "internalType": "bool",
          "name": "",
          "type": "bool"
        }
      ],
      "stateMutability": "view",
      "type": "function"
    },
    {
      "inputs": [],
      "name": "verificationKeySet",
      "outputs": [
        {
          "internalType": "bool",
          "name": "",
          "type": "bool"
        }
      ],
      "stateMutability": "view",
      "type": "function"
    },
    {
      "inputs": [
        {
          "internalType": "bytes32",
          "name": "proofId",
          "type": "bytes32"
        }
      ],
      "name": "verifyProofById",
      "outputs": [
        {
          "internalType": "bool",
          "name": "isVerified",
          "type": "bool"
        },
        {
          "internalType": "string",
          "name": "result",
          "type": "string"
        }
      ],
      "stateMutability": "view",
      "type": "function"
    }
  ],
  "bytecode": "0x608080604052346100825760008054336001600160a01b0319821681178355916001600160a01b03909116907f8be0079c531659141344cd1fd0a4f28419497f9722a3daafe3b4186f6b6457e09080a360018055600160ff19806017541660175562093a8060185560195416176019556207a120601a5561291190816100888239f35b600080fdfe6080604052600436101561001257600080fd5b60003560e01c80630297019d14611f1257806318806d6b14611eba57806326947a1414611e9c5780632ed6101414611e7957806335b69ed514611dfe5780634737a25014611d9c578063669a2f2314611cd75780636be443eb14611b3c578063715018a614611ae35780637bcc099f1461172b5780638b2f435214610ea45780638da5cb5b14610e7b578063b1a2d74b14610dfe578063b44995d214610c82578063be8e738b14610c64578063c34cf5c714610bde578063c9dbabe914610bbb578063d595728c1461091e578063d87318b2146108ed578063ef2e880214610278578063efcf6a8d146101d75763f2fde38b1461010e57600080fd5b346101d25760203660031901126101d257610127611f5c565b61012f6123e5565b6001600160a01b0390811690811561017e57600054826001600160601b0360a01b821617600055167f8be0079c531659141344cd1fd0a4f28419497f9722a3daafe3b4186f6b6457e0600080a3005b60405162461bcd60e51b815260206004820152602660248201527f4f776e61626c653a206e6577206f776e657220697320746865207a65726f206160448201526564647265737360d01b6064820152608490fd5b600080fd5b346101d25760003660031901126101d257600060025460015b8181111561020f57506060916040519180835260208301526040820152f35b600460405160209081810190692727a4a92fa82927a7a360b11b8252602a8581830152815261023d81611fbc565b5190206000525260ff600f6040600020015416610263575b61025e906124ca565b6101f0565b9161027061025e916124ca565b929050610255565b346101d25760a03660031901126101d2576004356001600160401b0381116101d257366023820112156101d25780600401356102b381612370565b916102c1604051938461200e565b8183526024602084019260051b820101903682116101d25760248101925b828410610874578480511561081b57606435156107bf576044351561076b576040516020810190602082526103298161031b604082018661227d565b03601f19810183528261200e565b519020604051903360601b602083015260348201526024356054820152604435607482015260643560948201524260b48201524360d482015260d48152806101008101106001600160401b036101008301111761066c576101008101604052805160208201209081600052600360205260ff6008604060002001541661070d575060843580156106fb576103bd9042612488565b6040516103c981611fa0565b8281523360208201528360408201526024356060820152604435608082015260643560a08201524260c08201528160e08201526001610100820152826000526003602052604060002090805182556001820160018060a01b036020830151166001600160601b0360a01b8254161790556040810151805190600160401b821161066c576002840154826002860155808310610682575b5060200190600284016000526020600020916000905b82821061054c5760208888817f73e056dff5b55cd79876b0c14206569640643f263f95cd599be159f406c66f1d8d6104f68c60086101008e606081015160038501556080810151600485015560a0810151600585015560c0810151600685015560e081015160078501550151151591019060ff801983541691151516179055565b336000526005865261050c836040600020612495565b6105216040519160a0835260a083019061227d565b93602435878301526044356040830152606435606083015260808201528033940390a3604051908152f35b80518051906001600160401b03821161066c5761056986546120e5565b601f811161062f575b50602090601f83116001146105bf5792826001949360209386956000926105b4575b5050600019600383901b1c191690841b1787555b01940191019092610475565b015190508e80610594565b908660005260206000209160005b601f1985168110610617575083602093600196938796938794601f198116106105fe575b505050811b0187556105a8565b015160001960f88460031b161c191690558e80806105f1565b919260206001819286850151815501940192016105cd565b61065c90876000526020600020601f850160051c81019160208610610662575b601f0160051c019061243d565b8b610572565b909150819061064f565b634e487b7160e01b600052604160045260246000fd5b600285016000526020600020908382015b81830181106106a357505061045f565b806106b0600192546120e5565b806106bd575b5001610693565b601f9081811184146106d6575050600081555b8b6106b6565b6106f260009284845260208420920160051c820185830161243d565b818355556106d0565b5061070860185442612488565b6103bd565b61010060849162461bcd60e51b82820152602061010482015260296101248201527f566572697461735a4b56657269666965723a205265717565737420616c7265616101448201526864792065786973747360b81b61016482015201fd5b60405162461bcd60e51b815260206004820152602660248201527f566572697461735a4b56657269666965723a20496e76616c6964206d65726b6c60448201526519481c9bdbdd60d21b6064820152608490fd5b60405162461bcd60e51b815260206004820152602e60248201527f566572697461735a4b56657269666965723a20496e76616c6964206d696e696d60448201526d756d2063726564656e7469616c7360901b6064820152608490fd5b60405162461bcd60e51b815260206004820152602b60248201527f566572697461735a4b56657269666965723a204e6f2063726564656e7469616c60448201526a1cc81cdc1958da599a595960aa1b6064820152608490fd5b83356001600160401b0381116101d257820190366043830112156101d2576024820135906001600160401b03821161066c576040516108bd601f8401601f19166020018261200e565b828152604493368585830101116101d25760208481969582966000940183860137830101528152019301926102df565b346101d25760203660031901126101d2576004356000526007602052602060ff604060002054166040519015158152f35b346101d25760203660031901126101d25760405161093b81611fd7565b600081526000602082015260006040820152600060608201526000608082015260405161096781611fbc565b60405161097381611ff3565b6040368237815260405161098681611ff3565b60005b60408110610b9d57600061014085858560208201526040516109aa81611ff3565b6040368237604082015260a0820152606060c08201528260e08201528261010082015260606101208201520152600435600052600460205260406000206040516109f381611fd7565b815481526001820154602082015260028201546001600160a01b031660408201526003820154606082015260048201546080820152610a3460058301612064565b60a0820152600d820191604051806020855491828152019460005260206000209060005b818110610b8757505050610a718160119495038261200e565b60c0840152600e81015460e084015260ff600f820154161515610100840152610a9c6010820161211f565b610120840152015461014082015260405160208152610260810191805160208301526020810151604083015260018060a01b03604082015116606083015260608101516080830152608081015160a0830152610b0060a082015160c08401906121eb565b60c08101519261024090816101c085015284518091526020610280850195019060005b818110610b7157505050610140610b66849560e08501516101e08701526101008501511515610200870152610120850151601f198783030161022088015261223d565b920151908301520390f35b8251875260209687019690920191600101610b23565b8254875260209096019560019283019201610a58565b602090604051610bac81611ff3565b60403682378184015201610989565b346101d25760003660031901126101d257602060ff601954166040519015158152f35b346101d25760203660031901126101d2576004356000526003602052610100604060002080549060018060a01b03600182015416906003810154600482015460058301549060068401549260ff600860078701549601541695604051978852602088015260408701526060860152608085015260a084015260c0830152151560e0820152f35b346101d25760003660031901126101d2576020601a54604051908152f35b346101d2576020806003193601126101d257600435600052600481526040600020604051610caf81611fd7565b815481526001808301548483015260028301546001600160a01b031660408301526003830154606083015260048301546080830152610cf060058401612064565b60a0830152600d8301906040519081928391878254948581520191600052876000209060005b89868210610de85750505050610d2e9250038261200e565b60c0820152600e82015460e082015260ff600f8301541690610100810191151582526011610d5e6010850161211f565b93610120830194855201546101408201525115610d9857610d94905115159151604080519485948552840152604083019061223d565b0390f35b60405162461bcd60e51b815260048101849052602260248201527f566572697461735a4b56657269666965723a2050726f6f66206e6f7420666f756044820152611b9960f21b6064820152608490fd5b8354855287955090930192918101918101610d16565b346101d25760203660031901126101d257600435610e1a6123e5565b620186a0811115610e2a57601a55005b60405162461bcd60e51b8152602060048201526024808201527f566572697461735a4b56657269666965723a20476173206c696d697420746f6f604482015263206c6f7760e01b6064820152608490fd5b346101d25760003660031901126101d2576000546040516001600160a01b039091168152602090f35b346101d2576101803660031901126101d2576101003660631901126101d257604051610ecf81611fbc565b36608312156101d257604051610ee481611ff3565b8060a4913683116101d2576064905b83821061171b57505082523660c312156101d257604051610f1381611ff3565b80610124923684116101d257905b83821061170157505060208301523661014312156101d257604051610f4581611ff3565b80610164923684116101d257905b8382106116f15750506040830152356001600160401b0381116101d257610f7e903690600401612387565b6002600154146116ac576002600155600435600052600360205260ff600860406000200154161561165957600435600052600360205260076040600020015442116116095760ff60195416156115b05760ff6017541615611557576024351561150457604435156114a957602435600052600760205260ff604060002054166114565760048151106113fb576110156002546124ca565b806002556040516020810191692727a4a92fa82927a7a360b11b8352602a820152602a815261104381611fbc565b5190209060243560005260076020526040600020600160ff198254161790555a61107082856004356124d9565b90925a83039283116113e5576040519561108987611fd7565b85875260043560208801523360408801526024356060880152604435608088015260a087015260c08601524260e08601528215156101008601528061012086015281610140860152836000526004602052604060002085518155602086015160018201556002810160018060a01b036040880151166001600160601b0360a01b825416179055606086015160038201556080860151600482015560a0860151805160005b600281106113ce575050602081015160078301906000905b60028210611398575050506040015160005b6002811061138157505060c08601518051906001600160401b03821161066c576020600d8401916111888484612454565b0190600052602060002060005b83811061136d575050505060e0860151600e8201556111ca6101008701511515600f83019060ff801983541691151516179055565b6101208601519586516001600160401b03811161066c576020976111f160108501546120e5565b601f811161133a575b508890601f83116001146112c1579282601193610140936112789897966000926112b6575b50508160011b916000199060031b1c19161760108501555b01519101553360005260068652611252856040600020612495565b60405193602435855242878601521515604085015260a0606085015260a084019061223d565b906080830152827fb0cea67c1d8fe042fb1c2d2d2eaa0fee54e509ecb302a8331d87a2e65cb9a2fe339380600435940390a460018055604051908152f35b015190508c8061121f565b9060108501600052896000209160005b601f19851681106113235750836101409361127898979693600193601197601f1981161061130a575b505050811b016010850155611237565b015160001960f88460031b161c191690558c80806112fa565b91928b6001819286850151815501940192016112d1565b61136790601086016000528a600020601f850160051c8101918c861061066257601f0160051c019061243d565b896111fa565b600190602084519401938184015501611195565b60019060208351930192600b828601015501611157565b805160005b600281106113ba5750506002602060019201930191019091611145565b60019060208351930192818701550161139d565b60019060208351930192600582870101550161112d565b634e487b7160e01b600052601160045260246000fd5b60405162461bcd60e51b815260206004820152602d60248201527f566572697461735a4b56657269666965723a20496e73756666696369656e742060448201526c7075626c696320696e7075747360981b6064820152608490fd5b60405162461bcd60e51b815260206004820152602560248201527f566572697461735a4b56657269666965723a2050726f6f6620616c7265616479604482015264081d5cd95960da1b6064820152608490fd5b60405162461bcd60e51b815260206004820152602d60248201527f566572697461735a4b56657269666965723a20496e76616c6964207075626c6960448201526c0c640d2dce0eae8e640d0c2e6d609b1b6064820152608490fd5b60405162461bcd60e51b815260206004820152602560248201527f566572697461735a4b56657269666965723a20496e76616c69642070726f6f66604482015264040d0c2e6d60db1b6064820152608490fd5b60405162461bcd60e51b815260206004820152602b60248201527f566572697461735a4b56657269666965723a20566572696669636174696f6e2060448201526a1ad95e481b9bdd081cd95d60aa1b6064820152608490fd5b60405162461bcd60e51b815260206004820152602b60248201527f566572697461735a4b56657269666965723a20566572696669636174696f6e2060448201526a1a5cc8191a5cd8589b195960aa1b6064820152608490fd5b60405162461bcd60e51b815260206004820152602260248201527f566572697461735a4b56657269666965723a2052657175657374206578706972604482015261195960f21b6064820152608490fd5b60405162461bcd60e51b815260206004820152602560248201527f566572697461735a4b56657269666965723a2052657175657374206e6f742061604482015264637469766560d81b6064820152608490fd5b60405162461bcd60e51b815260206004820152601f60248201527f5265656e7472616e637947756172643a207265656e7472616e742063616c6c006044820152606490fd5b8135815260209182019101610f53565b602060409161171036856122d9565b815201910190610f21565b8135815260209182019101610ef3565b346101d257602060031981813601126101d257600435916001600160401b03918284116101d2576101e09084360301126101d2576040519260a084018481108482111761066c5760405261178236826004016122d9565b8452611791366044830161231e565b918085019283526117a53660c4840161231e565b92604086019384526117bb36610144850161231e565b92606087019384526101c4810135908682116101d2570190366023830112156101d2576004820135966117ed88612370565b926117fb604051948561200e565b8884528484016024809a60051b830101913683116101d2578a8198969801915b838310611ab75750505050608081019485526118356123e5565b5160005b60028110611aa45750505192600a916000945b6002908187101561188c57908582519260005b8381106118775750600193500194019501949261184c565b8451888201559190930192879160010161185f565b8984848b898c5191600e906000935b600290818610156118db57908482519260005b8381106118c65750600193500193019401939161189b565b845187820155919093019286916001016118ae565b888389878a519060126000925b6002908185101561192857908382519260005b838110611913575060019350019201930192906118e8565b845186820155919093019285916001016118fb565b878785885190815191600160401b8311611a8f57819060165484601655808510611a22575b50019060166000527fd833147d7dc355ba459fc788f669e58cfaf9dc25ddcd0702e87d69c7b51242896000925b8484106119b657600160ff196017541617601755337f13c3ffa93145bc0071325c5733c8630c302baa3934113fd3d2b143ed10743244600080a2005b8051805190878211611a0d5790848093926119d18387612454565b01846000528360002060005b8381106119f9575050505060019182910192019301929061197a565b8251818301558795909201916001016119dd565b88634e487b7160e01b60005260416004526000fd5b847fd833147d7dc355ba459fc788f669e58cfaf9dc25ddcd0702e87d69c7b512428991820191015b818110611a57575061194d565b60019192935080546000825580611a74575b500190839291611a4a565b611a899082600052866000209081019061243d565b88611a69565b84634e487b7160e01b60005260416004526000fd5b8151600882015590840190600101611839565b82989698358b81116101d2578891611ad583928f3691870101612387565b81520192019197959761181b565b346101d25760003660031901126101d257611afc6123e5565b600080546001600160a01b0319811682556001600160a01b03167f8be0079c531659141344cd1fd0a4f28419497f9722a3daafe3b4186f6b6457e08280a3005b346101d2576020806003193601126101d257604051611b5a81611fa0565b60008152600082820152606060408201526000606082015260006080820152600060a0820152600060c0820152600060e082015260006101008092015260043560005260038252604060002060405191611bb383611fa0565b8154835260018060a01b03916001918383830154169186860192835260028101938454611bdf81612370565b95611bed604051978861200e565b81875260009081528981208a8089015b848410611cba5750505050505060408601938452600381015494606087019586526004820154946080880195865260058301549060a0890191825260068401549260c08a0193845260ff600860078701549660e08d0197885201541696868b0197151588526040519b8c9b818d5251908c0152511660408a01525195611c91610120978860608c01526101408b019061227d565b975160808a01525160a08901525160c08801525160e08701525190850152511515908301520390f35b85918291611cc78561211f565b8152019201920191908b90611bfd565b346101d25760203660031901126101d257600435600052600460205260406000208054600182015491611d9160018060a01b036002830154169160038101546004820154611d71611d2a60058501612064565b600e8501549260ff600f87015416946011611d476010890161211f565b970154986040519b8c9b8c5260208c015260408b015260608a0152608089015260a08801906121eb565b6101a086015215156101c0850152610220806101e086015284019061223d565b906102008301520390f35b346101d25760203660031901126101d2576004358015158091036101d25760207f83516f49e1f29926f5b916c424b9c9eb1c6e1569e4bce13a42faa8ddd1cb1d5991611de66123e5565b60ff196019541660ff821617601955604051908152a1005b346101d25760203660031901126101d257600435611e1a6123e5565b8015611e2557601855005b60405162461bcd60e51b815260206004820152602660248201527f566572697461735a4b56657269666965723a20496e76616c6964206578706972604482015265792074696d6560d01b6064820152608490fd5b346101d25760003660031901126101d257602060ff601754166040519015158152f35b346101d25760003660031901126101d2576020601854604051908152f35b346101d25760403660031901126101d257611ed3611f5c565b6001600160a01b03166000908152600660205260409020805460243591908210156101d257602091611f0491611f72565b90546040519160031b1c8152f35b346101d25760403660031901126101d257611f2b611f5c565b6001600160a01b03166000908152600560205260409020805460243591908210156101d257602091611f0491611f72565b600435906001600160a01b03821682036101d257565b8054821015611f8a5760005260206000200190600090565b634e487b7160e01b600052603260045260246000fd5b61012081019081106001600160401b0382111761066c57604052565b606081019081106001600160401b0382111761066c57604052565b61016081019081106001600160401b0382111761066c57604052565b604081019081106001600160401b0382111761066c57604052565b90601f801991011681019081106001600160401b0382111761066c57604052565b60405191906000835b6002821061204e5750505061204c82611ff3565b565b6001602081928554815201930191019091612038565b9060405161207181611fbc565b809261207c8161202f565b8252604051604081018181106001600160401b0382111761066c576040526002828101906000835b8282106120c8575050505060066040926120c39260208601520161202f565b910152565b8260206001926120d78761202f565b8152019401910190926120a4565b90600182811c92168015612115575b60208310146120ff57565b634e487b7160e01b600052602260045260246000fd5b91607f16916120f4565b9060405191826000825492612133846120e5565b9081845260019485811690816000146121a0575060011461215d575b505061204c9250038361200e565b9093915060005260209081600020936000915b81831061218857505061204c9350820101388061214f565b85548884018501529485019487945091830191612170565b91505061204c94506020925060ff191682840152151560051b820101388061214f565b6000915b600283106121d457505050565b6001908251815260208091019201920191906121c7565b6121f68282516121c3565b6020818101516040929160008585015b600282106122215750505050015161204c9160c001906121c3565b82868261223160019488516121c3565b01940191019092612206565b919082519283825260005b848110612269575050826000602080949584010152601f8019910116010190565b602081830181015184830182015201612248565b908082519081815260208091019281808460051b8301019501936000915b8483106122ab5750505050505090565b90919293949584806122c9600193601f198682030187528a5161223d565b980193019301919493929061229b565b9080601f830112156101d257604051916122f283611ff3565b8290604081019283116101d257905b82821061230e5750505090565b8135815260209182019101612301565b81601f820112156101d25760409081519261233884611ff3565b839060808301928184116101d257915b83831061235757505050505090565b6020859161236584866122d9565b815201920191612348565b6001600160401b03811161066c5760051b60200190565b81601f820112156101d25780359161239e83612370565b926123ac604051948561200e565b808452602092838086019260051b8201019283116101d2578301905b8282106123d6575050505090565b813581529083019083016123c8565b6000546001600160a01b031633036123f957565b606460405162461bcd60e51b815260206004820152602060248201527f4f776e61626c653a2063616c6c6572206973206e6f7420746865206f776e65726044820152fd5b818110612448575050565b6000815560010161243d565b90600160401b811161066c5781549080835581811061247257505050565b61204c926000526020600020918201910161243d565b919082018092116113e557565b8054600160401b81101561066c576124b291600182018155611f72565b819291549060031b91821b91600019901b1916179055565b60001981146113e55760010190565b90929192600091825260209160038352604094858220918651936124fc85611fa0565b835485526001808501546001600160a01b03168787015260028501805491969161252581612370565b916125328c51938461200e565b81835285528885208590898b85015b8c8585106128c0575050505050508982015260038501546060820190815260049485870154926080810193845261010060ff600860058b01549a60a085019b8c52600681015460c0860152600781015460e0860152015416151591015283518981511591826128b4575b505061287e578a84019687518a8151159182612872575b505061283157868251106127de578151156127cb578982015182518a10156127b8578c830151928051600210156127a5576060015194510361276e5751036127205751036126eb57518581519101519351868151910151908951958887019384528a870152606086015260808501526080845260a08401928484106001600160401b038511176126d857506064605a91848a5285519020061060001461269c575050507f4e6f69722070726f6f66207665726966696564207375636365737366756c6c799093519161269383611ff3565b80835282015290565b955092507f4e6f69722070726f6f6620766572696669636174696f6e206661696c65640000915060c0906126cf84611ff3565b601e8452015290565b634e487b7160e01b835260419052602482fd5b5091505074092dcecc2d8d2c840c6e4d2e8cae4d2c240d0c2e6d605b1b915093519161271683611ff3565b6015835282015290565b505050915050661a5c995b595b9d60ca1b9150937f496e76616c6964206d696e696d756d2063726564656e7469616c73207265717581519361276185611fbc565b6027855284015282015290565b505050505091505072125b9d985b1a59081b595c9adb19481c9bdbdd606a1b915093519161279b83611ff3565b6013835282015290565b634e487b7160e01b885260328952602488fd5b634e487b7160e01b875260328852602487fd5b634e487b7160e01b865260328752602486fd5b5050505050915050690cadce840d8cadccee8d60b31b9150937f496e76616c6964207075626c696320696e707574733a20696e7375666669636981519361282485611fbc565b602a855284015282015290565b50505050509150507f496e76616c69642070726f6f663a207a65726f204320636f6d706f6e656e7400915093519161286883611ff3565b601f835282015290565b01511590508a386125c2565b505050509150507f496e76616c69642070726f6f663a207a65726f204120636f6d706f6e656e7400915093519161286883611ff3565b015115905089386125ab565b82916128cb8561211f565b8152019201920191908a9061254156fea26469706673582212205fd96628ef90818044298fd069252d2bd2410ac3d7bf340d77f53e3ccc79038c64736f6c63430008130033",
  "linkReferences": {},
  "deployedLinkReferences": {}
}