{
  "_format": "hh-sol-artifact-1",
  "contractName": "VeritasSBT",
  "sourceName": "contracts/VeritasSBT.sol",
  "abi": [
    {
      "inputs": [],
      "stateMutability": "nonpayable",
      "type": "constructor"
    },
    {
      "anonymous": false,
      "inputs": [
        {
          "indexed": true,
          "internalType": "address",
          "name": "owner",
          "type": "address"
        },
        {
          "indexed": true,
          "internalType": "address",
          "name": "approved",
          "type": "address"
        },
        {
          "indexed": true,
          "internalType": "uint256",
          "name": "tokenId",
          "type": "uint256"
        }
      ],
      "name": "Approval",
      "type": "event"
    },
    {
      "anonymous": false,
      "inputs": [
        {
          "indexed": true,
          "internalType": "address",
          "name": "owner",
          "type": "address"
        },
        {
          "indexed": true,
          "internalType": "address",
          "name": "operator",
          "type": "address"
        },
        {
          "indexed": false,
          "internalType": "bool",
          "name": "approved",
          "type": "bool"
        }
      ],
      "name": "ApprovalForAll",
      "type": "event"
    },
    {
      "anonymous": false,
      "inputs": [
        {
          "indexed": false,
          "internalType": "uint256",
          "name": "_fromTokenId",
          "type": "uint256"
        },
        {
          "indexed": false,
          "internalType": "uint256",
          "name": "_toTokenId",
          "type": "uint256"
        }
      ],
      "name": "BatchMetadataUpdate",
      "type": "event"
    },
    {
      "anonymous": false,
      "inputs": [
        {
          "indexed": true,
          "internalType": "uint256",
          "name": "tokenId",
          "type": "uint256"
        },
        {
          "indexed": true,
          "internalType": "address",
          "name": "recipient",
          "type": "address"
        },
        {
          "indexed": true,
          "internalType": "address",
          "name": "issuer",
          "type": "address"
        },
        {
          "indexed": false,
          "internalType": "string",
          "name": "credentialType",
          "type": "string"
        },
        {
          "indexed": false,
          "internalType": "string",
          "name": "issuerName",
          "type": "string"
        },
        {
          "indexed": false,
          "internalType": "uint256",
          "name": "timestamp",
          "type": "uint256"
        },
        {
          "indexed": false,
          "internalType": "bytes32",
          "name": "metadataHash",
          "type": "bytes32"
        },
        {
          "indexed": false,
          "internalType": "string",
          "name": "metadataURI",
          "type": "string"
        }
      ],
      "name": "CredentialIssued",
      "type": "event"
    },
    {
      "anonymous": false,
      "inputs": [
        {
          "indexed": true,
          "internalType": "uint256",
          "name": "tokenId",
          "type": "uint256"
        },
        {
          "indexed": false,
          "internalType": "string",
          "name": "reason",
          "type": "string"
        }
      ],
      "name": "CredentialRevoked",
      "type": "event"
    },
    {
      "anonymous": false,
      "inputs": [
        {
          "indexed": true,
          "internalType": "address",
          "name": "issuer",
          "type": "address"
        },
        {
          "indexed": false,
          "internalType": "bool",
          "name": "status",
          "type": "bool"
        }
      ],
      "name": "IssuerWhitelisted",
      "type": "event"
    },
    {
      "anonymous": false,
      "inputs": [
        {
          "indexed": false,
          "internalType": "uint256",
          "name": "_tokenId",
          "type": "uint256"
        }
      ],
      "name": "MetadataUpdate",
      "type": "event"
    },
    {
      "anonymous": false,
      "inputs": [
        {
          "indexed": true,
          "internalType": "uint256",
          "name": "tokenId",
          "type": "uint256"
        },
        {
          "indexed": false,
          "internalType": "string",
          "name": "newMetadataURI",
          "type": "string"
        }
      ],
      "name": "MetadataUpdated",
      "type": "event"
    },
    {
      "anonymous": false,
      "inputs": [
        {
          "indexed": true,
          "internalType": "address",
          "name": "previousOwner",
          "type": "address"
        },
        {
          "indexed": true,
          "internalType": "address",
          "name": "newOwner",
          "type": "address"
        }
      ],
      "name": "OwnershipTransferred",
      "type": "event"
    },
    {
      "anonymous": false,
      "inputs": [
        {
          "indexed": true,
          "internalType": "address",
          "name": "from",
          "type": "address"
        },
        {
          "indexed": true,
          "internalType": "address",
          "name": "to",
          "type": "address"
        },
        {
          "indexed": true,
          "internalType": "uint256",
          "name": "tokenId",
          "type": "uint256"
        }
      ],
      "name": "Transfer",
      "type": "event"
    },
    {
      "inputs": [
        {
          "internalType": "address",
          "name": "",
          "type": "address"
        },
        {
          "internalType": "uint256",
          "name": "",
          "type": "uint256"
        }
      ],
      "name": "approve",
      "outputs": [],
      "stateMutability": "pure",
      "type": "function"
    },
    {
      "inputs": [
        {
          "internalType": "address",
          "name": "owner",
          "type": "address"
        }
      ],
      "name": "balanceOf",
      "outputs": [
        {
          "internalType": "uint256",
          "name": "",
          "type": "uint256"
        }
      ],
      "stateMutability": "view",
      "type": "function"
    },
    {
      "inputs": [
        {
          "internalType": "string",
          "name": "",
          "type": "string"
        }
      ],
      "name": "credentialTypeCount",
      "outputs": [
        {
          "internalType": "uint256",
          "name": "",
          "type": "uint256"
        }
      ],
      "stateMutability": "view",
      "type": "function"
    },
    {
      "inputs": [
        {
          "internalType": "uint256",
          "name": "",
          "type": "uint256"
        }
      ],
      "name": "credentials",
      "outputs": [
        {
          "internalType": "string",
          "name": "credentialType",
          "type": "string"
        },
        {
          "internalType": "string",
          "name": "issuerName",
          "type": "string"
        },
        {
          "internalType": "uint256",
          "name": "timestamp",
          "type": "uint256"
        },
        {
          "internalType": "bytes32",
          "name": "metadataHash",
          "type": "bytes32"
        },
        {
          "internalType": "string",
          "name": "metadataURI",
          "type": "string"
        },
        {
          "internalType": "bool",
          "name": "isValid",
          "type": "bool"
        }
      ],
      "stateMutability": "view",
      "type": "function"
    },
    {
      "inputs": [
        {
          "internalType": "uint256",
          "name": "tokenId",
          "type": "uint256"
        }
      ],
      "name": "getApproved",
      "outputs": [
        {
          "internalType": "address",
          "name": "",
          "type": "address"
        }
      ],
      "stateMutability": "view",
      "type": "function"
    },
    {
      "inputs": [
        {
          "internalType": "uint256",
          "name": "tokenId",
          "type": "uint256"
        }
      ],
      "name": "getCredential",
      "outputs": [
        {
          "components": [
            {
              "internalType": "string",
              "name": "credentialType",
              "type": "string"
            },
            {
              "internalType": "string",
              "name": "issuerName",
              "type": "string"
            },
            {
              "internalType": "uint256",
              "name": "timestamp",
              "type": "uint256"
            },
            {
              "internalType": "bytes32",
              "name": "metadataHash",
              "type": "bytes32"
            },
            {
              "internalType": "string",
              "name": "metadataURI",
              "type": "string"
            },
            {
              "internalType": "bool",
              "name": "isValid",
              "type": "bool"
            }
          ],
          "internalType": "struct VeritasSBT.Credential",
          "name": "",
          "type": "tuple"
        }
      ],
      "stateMutability": "view",
      "type": "function"
    },
    {
      "inputs": [
        {
          "internalType": "string",
          "name": "credentialType",
          "type": "string"
        }
      ],
      "name": "getCredentialTypeCount",
      "outputs": [
        {
          "internalType": "uint256",
          "name": "",
          "type": "uint256"
        }
      ],
      "stateMutability": "view",
      "type": "function"
    },
    {
      "inputs": [
        {
          "internalType": "address",
          "name": "user",
          "type": "address"
        }
      ],
      "name": "getUserCredentials",
      "outputs": [
        {
          "internalType": "uint256[]",
          "name": "",
          "type": "uint256[]"
        }
      ],
      "stateMutability": "view",
      "type": "function"
    },
    {
      "inputs": [
        {
          "internalType": "address",
          "name": "owner",
          "type": "address"
        },
        {
          "internalType": "address",
          "name": "operator",
          "type": "address"
        }
      ],
      "name": "isApprovedForAll",
      "outputs": [
        {
          "internalType": "bool",
          "name": "",
          "type": "bool"
        }
      ],
      "stateMutability": "view",
      "type": "function"
    },
    {
      "inputs": [
        {
          "internalType": "address",
          "name": "recipient",
          "type": "address"
        },
        {
          "internalType": "string",
          "name": "credentialType",
          "type": "string"
        },
        {
          "internalType": "string",
          "name": "issuerName",
          "type": "string"
        },
        {
          "internalType": "bytes32",
          "name": "metadataHash",
          "type": "bytes32"
        },
        {
          "internalType": "string",
          "name": "metadataURI",
          "type": "string"
        }
      ],
      "name": "mintCredential",
      "outputs": [
        {
          "internalType": "uint256",
          "name": "",
          "type": "uint256"
        }
      ],
      "stateMutability": "nonpayable",
      "type": "function"
    },
    {
      "inputs": [],
      "name": "name",
      "outputs": [
        {
          "internalType": "string",
          "name": "",
          "type": "string"
        }
      ],
      "stateMutability": "view",
      "type": "function"
    },
    {
      "inputs": [],
      "name": "owner",
      "outputs": [
        {
          "internalType": "address",
          "name": "",
          "type": "address"
        }
      ],
      "stateMutability": "view",
      "type": "function"
    },
    {
      "inputs": [
        {
          "internalType": "uint256",
          "name": "tokenId",
          "type": "uint256"
        }
      ],
      "name": "ownerOf",
      "outputs": [
        {
          "internalType": "address",
          "name": "",
          "type": "address"
        }
      ],
      "stateMutability": "view",
      "type": "function"
    },
    {
      "inputs": [],
      "name": "renounceOwnership",
      "outputs": [],
      "stateMutability": "nonpayable",
      "type": "function"
    },
    {
      "inputs": [
        {
          "internalType": "uint256",
          "name": "tokenId",
          "type": "uint256"
        },
        {
          "internalType": "string",
          "name": "reason",
          "type": "string"
        }
      ],
      "name": "revokeCredential",
      "outputs": [],
      "stateMutability": "nonpayable",
      "type": "function"
    },
    {
      "inputs": [
        {
          "internalType": "address",
          "name": "",
          "type": "address"
        },
        {
          "internalType": "address",
          "name": "",
          "type": "address"
        },
        {
          "internalType": "uint256",
          "name": "",
          "type": "uint256"
        }
      ],
      "name": "safeTransferFrom",
      "outputs": [],
      "stateMutability": "pure",
      "type": "function"
    },
    {
      "inputs": [
        {
          "internalType": "address",
          "name": "",
          "type": "address"
        },
        {
          "internalType": "address",
          "name": "",
          "type": "address"
        },
        {
          "internalType": "uint256",
          "name": "",
          "type": "uint256"
        },
        {
          "internalType": "bytes",
          "name": "",
          "type": "bytes"
        }
      ],
      "name": "safeTransferFrom",
      "outputs": [],
      "stateMutability": "pure",
      "type": "function"
    },
    {
      "inputs": [
        {
          "internalType": "address",
          "name": "",
          "type": "address"
        },
        {
          "internalType": "bool",
          "name": "",
          "type": "bool"
        }
      ],
      "name": "setApprovalForAll",
      "outputs": [],
      "stateMutability": "pure",
      "type": "function"
    },
    {
      "inputs": [
        {
          "internalType": "address",
          "name": "issuer",
          "type": "address"
        },
        {
          "internalType": "bool",
          "name": "status",
          "type": "bool"
        }
      ],
      "name": "setIssuerWhitelist",
      "outputs": [],
      "stateMutability": "nonpayable",
      "type": "function"
    },
    {
      "inputs": [
        {
          "internalType": "bytes4",
          "name": "interfaceId",
          "type": "bytes4"
        }
      ],
      "name": "supportsInterface",
      "outputs": [
        {
          "internalType": "bool",
          "name": "",
          "type": "bool"
        }
      ],
      "stateMutability": "view",
      "type": "function"
    },
    {
      "inputs": [],
      "name": "symbol",
      "outputs": [
        {
          "internalType": "string",
          "name": "",
          "type": "string"
        }
      ],
      "stateMutability": "view",
      "type": "function"
    },
    {
      "inputs": [
        {
          "internalType": "uint256",
          "name": "tokenId",
          "type": "uint256"
        }
      ],
      "name": "tokenURI",
      "outputs": [
        {
          "internalType": "string",
          "name": "",
          "type": "string"
        }
      ],
      "stateMutability": "view",
      "type": "function"
    },
    {
      "inputs": [],
      "name": "totalSupply",
      "outputs": [
        {
          "internalType": "uint256",
          "name": "",
          "type": "uint256"
        }
      ],
      "stateMutability": "view",
      "type": "function"
    },
    {
      "inputs": [
        {
          "internalType": "address",
          "name": "",
          "type": "address"
        },
        {
          "internalType": "address",
          "name": "",
          "type": "address"
        },
        {
          "internalType": "uint256",
          "name": "",
          "type": "uint256"
        }
      ],
      "name": "transferFrom",
      "outputs": [],
      "stateMutability": "pure",
      "type": "function"
    },
    {
      "inputs": [
        {
          "internalType": "address",
          "name": "newOwner",
          "type": "address"
        }
      ],
      "name": "transferOwnership",
      "outputs": [],
      "stateMutability": "nonpayable",
      "type": "function"
    },
    {
      "inputs": [
        {
          "internalType": "uint256",
          "name": "tokenId",
          "type": "uint256"
        },
        {
          "internalType": "string",
          "name": "newMetadataURI",
          "type": "string"
        }
      ],
      "name": "updateMetadataURI",
      "outputs": [],
      "stateMutability": "nonpayable",
      "type": "function"
    },
    {
      "inputs": [
        {
          "internalType": "address",
          "name": "",
          "type": "address"
        },
        {
          "internalType": "uint256",
          "name": "",
          "type": "uint256"
        }
      ],
      "name": "userCredentials",
      "outputs": [
        {
          "internalType": "uint256",
          "name": "",
          "type": "uint256"
        }
      ],
      "stateMutability": "view",
      "type": "function"
    },
    {
      "inputs": [
        {
          "internalType": "address",
          "name": "",
          "type": "address"
        }
      ],
      "name": "whitelistedIssuers",
      "outputs": [
        {
          "internalType": "bool",
          "name": "",
          "type": "bool"
        }
      ],
      "stateMutability": "view",
      "type": "function"
    }
  ],
  "bytecode": "0x60803462000371576001600160401b0390604090808201838111828210176200035b578252601781526020917f5665726974617320536f756c626f756e6420546f6b656e00000000000000000083830152805193818501858110828211176200035b57825260048552631594d09560e21b8486015282518181116200035b576000948554916001958684811c9416801562000350575b838510146200033c578190601f94858111620002e9575b5083908583116001146200028557899262000279575b5050600019600383901b1c191690861b1786555b8651928311620002655784548581811c911680156200025a575b828210146200024657828111620001fe575b50809183116001146200019557508495829394959262000189575b5050600019600383901b1c191690831b1782555b60078054336001600160a01b03198216811790925591519390916001600160a01b0316907f8be0079c531659141344cd1fd0a4f28419497f9722a3daafe3b4186f6b6457e09080a3600855611e109081620003778239f35b0151905038806200011d565b90601f198316968587528287209287905b898210620001e65750508386979896959610620001cc575b505050811b01825562000131565b015160001960f88460031b161c19169055388080620001be565b808885968294968601518155019501930190620001a6565b8587528187208380860160051c8201928487106200023c575b0160051c019086905b8281106200023057505062000102565b88815501869062000220565b9250819262000217565b634e487b7160e01b87526022600452602487fd5b90607f1690620000f0565b634e487b7160e01b86526041600452602486fd5b015190503880620000c2565b898052848a208994509190601f1984168b5b87828210620002d25750508411620002b8575b505050811b018655620000d6565b015160001960f88460031b161c19169055388080620002aa565b8385015186558c9790950194938401930162000297565b9091508880528389208580850160051c82019286861062000332575b918a91869594930160051c01915b82811062000323575050620000ac565b8b81558594508a910162000313565b9250819262000305565b634e487b7160e01b88526022600452602488fd5b93607f169362000095565b634e487b7160e01b600052604160045260246000fd5b600080fdfe608080604052600436101561001357600080fd5b60003560e01c90816301ffc9a7146116f35750806306fdde0314611650578063081812fc146115f9578063095ea7b31461158257806318160ddd1461156457806323b872dd14610d155780632672a35914610d1a57806342842e0e14610d155780636352211e14610cd657806370a0823114610c3f578063715018a614610be25780638da5cb5b14610bb95780638dd18d2d14610a7d5780638fe86b3f146108cc5780639364ace914610874578063957a32051461077957806395d89b411461069a578063a22cb4651461062d578063b88d4fde146105d4578063b9565fbd14610425578063c76d291914610520578063c87b56dd14610481578063c9174b1f14610425578063d61c0e78146103e6578063e0574e3f1461033f578063e985e9c5146102e9578063f1880733146102215763f2fde38b1461015357600080fd5b3461021c57602036600319011261021c5761016c6117c0565b610174611a2c565b6001600160a01b039081169081156101c857600754826bffffffffffffffffffffffff60a01b821617600755167f8be0079c531659141344cd1fd0a4f28419497f9722a3daafe3b4186f6b6457e0600080a3005b60405162461bcd60e51b815260206004820152602660248201527f4f776e61626c653a206e6577206f776e657220697320746865207a65726f206160448201526564647265737360d01b6064820152608490fd5b600080fd5b3461021c5761022f3661191d565b90610238611a2c565b6001600160a01b03169081156102995760207f01fe38add9c87023405f4f0be0cddf72b01de35f71327638bbe7e31eb40d24689183600052600b825261028e8160406000209060ff801983541691151516179055565b6040519015158152a2005b60405162461bcd60e51b815260206004820152602260248201527f566572697461735342543a20496e76616c696420697373756572206164647265604482015261737360f01b6064820152608490fd5b3461021c57604036600319011261021c576103026117c0565b61030a6117d6565b9060018060a01b03809116600052600560205260406000209116600052602052602060ff604060002054166040519015158152f35b3461021c57602036600319011261021c57600435600052600a6020526103b4604060002061036c81611986565b906103da61037c60018301611986565b9160028101549060038101546103c260ff600561039b60048601611986565b940154169560405198899860c08a5260c08a019061179b565b9088820360208a015261179b565b9260408701526060860152848203608086015261179b565b90151560a08301520390f35b3461021c57602036600319011261021c576001600160a01b036104076117c0565b16600052600b602052602060ff604060002054166040519015158152f35b3461021c57602036600319011261021c576004356001600160401b03811161021c5761046e602061045b819336906004016118a2565b8160405193828580945193849201611778565b8101600d81520301902054604051908152f35b3461021c57602036600319011261021c576004356000818152600260205260409020546104b8906001600160a01b03161515611a84565b60005260066020526104cd6040600020611986565b60405190602082018281106001600160401b0382111761050a57610506926000916040525260405191829160208352602083019061179b565b0390f35b634e487b7160e01b600052604160045260246000fd5b3461021c5760208060031936011261021c576001600160a01b036105426117c0565b16600052600c8152604060002060405190818382549182815201908192600052846000209060005b868282106105c05786866105808288038361183b565b604051928392818401908285525180915260408401929160005b8281106105a957505050500390f35b83518552869550938101939281019260010161059a565b83548552909301926001928301920161056a565b3461021c57608036600319011261021c576105ed6117c0565b506105f66117d6565b506064356001600160401b03811161021c573660238201121561021c5761062790369060248160040135910161185c565b50611d7a565b3461021c5761063b3661191d565b505060405162461bcd60e51b815260206004820152602f60248201527f566572697461735342543a20536f756c626f756e6420746f6b656e732063616e60448201526e1b9bdd08189948185c1c1c9bdd9959608a1b6064820152608490fd5b3461021c57600036600319011261021c57604051600060018054906106be8261194c565b8085529181811690811561075257506001146106f9575b610506846106e58186038261183b565b60405191829160208352602083019061179b565b600081815292507fb10e2d527612073b26eecdfd717e6a320cf44b4afac2b0732d9fcbe2b7fa0cf65b82841061073a5750505081016020016106e5826106d5565b80546020858701810191909152909301928101610722565b60ff191660208087019190915292151560051b850190920192506106e591508390506106d5565b3461021c57610787366118c0565b90610790611a2c565b80600052602091600283526107b360018060a01b03604060002054161515611d2f565b81600052600a835260ff60056040600020015416156108205781927f37ec22acf5d9778ea37b449f7834d99acb0c9632e381d2ceba59480d79ca91a792600052600a8152600560406000200160ff19815416905561081b60405192828493845283019061179b565b0390a2005b60405162461bcd60e51b815260048101849052602660248201527f566572697461735342543a2043726564656e7469616c20616c72656164792072604482015265195d9bdad95960d21b6064820152608490fd5b3461021c57604036600319011261021c5761088d6117c0565b6001600160a01b03166000908152600c602052604090208054602435919082101561021c576020916108be916118ef565b90546040519160031b1c8152f35b3461021c576108da366118c0565b906108e3611a2c565b806000526020916002835261090660018060a01b03604060002054161515611d2f565b6109108183611b41565b81600052600a83526004604060002001928151936001600160401b03851161050a5761093c815461194c565b601f8111610a37575b5081601f86116001146109b25794807f459157ba24c7ab9878b165ef465fa6ae2ab42bcd8445f576be378768b0c4730995966000916109a7575b508160011b916000199060031b1c19161790555b61081b60405192828493845283019061179b565b90508401518761097f565b601f1986169082600052836000209160005b818110610a2057509187917f459157ba24c7ab9878b165ef465fa6ae2ab42bcd8445f576be378768b0c47309979860019410610a07575b5050811b019055610993565b86015160001960f88460031b161c1916905587806109fb565b91928560018192868a0151815501940192016109c4565b8160005282600020601f870160051c810191848810610a73575b601f0160051c01905b818110610a675750610945565b60008155600101610a5a565b9091508190610a51565b3461021c5760208060031936011261021c5760405160c091600435610aa183611820565b600060a06060948581528585820152826040820152828682015285608082015201528060005260028252610ae360018060a01b03604060002054161515611d2f565b600052600a8152610bac60406000209260405193610b0085611820565b610b0981611986565b8552610b1760018201611986565b9084860191825260028101549260408701938452600382015490808801918252610b90610b7a60ff6005610b4d60048801611986565b9660808d019788520154169860a08b019915158a526040519b8c9b828d5251918c015260e08b019061179b565b945194601f1995868b83030160408c015261179b565b94519088015251608087015251908583030160a086015261179b565b9051151560c08301520390f35b3461021c57600036600319011261021c576007546040516001600160a01b039091168152602090f35b3461021c57600036600319011261021c57610bfb611a2c565b600780546001600160a01b031981169091556000906001600160a01b03167f8be0079c531659141344cd1fd0a4f28419497f9722a3daafe3b4186f6b6457e08280a3005b3461021c57602036600319011261021c576001600160a01b03610c606117c0565b168015610c7f5760005260036020526020604060002054604051908152f35b60405162461bcd60e51b815260206004820152602960248201527f4552433732313a2061646472657373207a65726f206973206e6f7420612076616044820152683634b21037bbb732b960b91b6064820152608490fd5b3461021c57602036600319011261021c576004356000526002602052602060018060a01b0360406000205416610d0d811515611a84565b604051908152f35b6117ec565b3461021c5760a036600319011261021c57610d336117c0565b6024356001600160401b03811161021c57610d529036906004016118a2565b9060449081356001600160401b03811161021c57610d749036906004016118a2565b91608480356001600160401b03811161021c57610d959036906004016118a2565b9133600052600b60205260ff6040600020541615611517576002600854146114d35760026008556001600160a01b038416156114845785511561142f578451156113de5760643515611393575050610dee600954611ad0565b9283600955610e1b610e1585600052600260205260018060a01b0360406000205416151590565b15611af5565b600084815260026020526040902054610e3e906001600160a01b03161515610e15565b6001600160a01b0383166000818152600360209081526040808320805460010190558783526002909152812080546001600160a01b031916831790558591907fddf252ad1be2c89b69c2b068fc378daa952ba7f163c4a11628f55a4df523b3ef8180a4610eab8285611b41565b604051610eb781611820565b8581528160208201524260408201526064356060820152826080820152600160a082015284600052600a60205260406000209080518051906001600160401b03821161050a578190610f09855461194c565b601f8111611343575b50602090601f83116001146112d7576000926112cc575b50508160011b916000199060031b1c19161782555b60208101518051906001600160401b03821161050a578190610f63600186015461194c565b601f8111611279575b50602090601f8311600114611207576000926111fc575b50508160011b916000199060031b1c19161760018301555b604081015160028301556060810151600383015560808101518051906001600160401b03821161050a57610fd2600485015461194c565b601f81116111b5575b50602090601f831160011461113c57928260059360a09361102e9796600092611131575b50508160011b916000199060031b1c19161760048501555b0151151591019060ff801983541691151516179055565b6001600160a01b0383166000908152600c60205260409020805490916801000000000000000082101561050a576020966111216110fa6110ed9361109a868b9860017f82a8e5d15c6ba5df28f8980e442ffc3d8bc06fdcfab9db9372e88fa6c1fd90a6990181556118ef565b81549060031b9089821b91600019901b19161790556040518b8186516110c38183858b01611778565b8101600d8152030190206110d78154611ad0565b905560405194859460a0865260a086019061179b565b908482038c86015261179b565b4260408401526064356060840152828103608084015233976001600160a01b03169661179b565b0390a46001600855604051908152f35b015190508c80610fff565b906004850160005260206000209160005b601f198516811061119d57508360a09361102e979693600193600597601f19811610611184575b505050811b016004850155611017565b015160001960f88460031b161c191690558c8080611174565b9192602060018192868501518155019401920161114d565b600485016000526020600020601f840160051c8101602085106111f5575b601f830160051c820181106111e9575050610fdb565b600081556001016111d3565b50806111d3565b015190508980610f83565b9250600185016000526020600020906000935b601f198416851061125e576001945083601f19811610611245575b505050811b016001830155610f9b565b015160001960f88460031b161c19169055898080611235565b8181015183556020948501946001909301929091019061121a565b909150600185016000526020600020601f840160051c8101602085106112c5575b90849392915b601f830160051c820181106112b6575050610f6c565b600081558594506001016112a0565b508061129a565b015190508980610f29565b9250846000526020600020906000935b601f1984168510611328576001945083601f1981161061130f575b505050811b018255610f3e565b015160001960f88460031b161c19169055898080611302565b818101518355602094850194600190930192909101906112e7565b909150846000526020600020601f840160051c81016020851061138c575b90849392915b601f830160051c8201811061137d575050610f12565b60008155859450600101611367565b5080611361565b7f566572697461735342543a20496e76616c6964206d65746164617461206861736040519162461bcd60e51b83526020600484015260216024840152820152600d60fb1b6064820152fd5b7f566572697461735342543a20497373756572206e616d652063616e6e6f7420626040519162461bcd60e51b83526020600484015260276024840152820152666520656d70747960c81b6064820152fd5b7f566572697461735342543a2043726564656e7469616c20747970652063616e6e6040519162461bcd60e51b835260206004840152602b60248401528201526a6f7420626520656d70747960a81b6064820152fd5b7f566572697461735342543a20496e76616c696420726563697069656e742061646040519162461bcd60e51b8352602060048401526025602484015282015264647265737360d81b6064820152fd5b6064907f5265656e7472616e637947756172643a207265656e7472616e742063616c6c006040519162461bcd60e51b835260206004840152601f6024840152820152fd5b7f566572697461735342543a204e6f7420612077686974656c69737465642069736040519162461bcd60e51b8352602060048401526024808401528201526339bab2b960e11b6064820152fd5b3461021c57600036600319011261021c576020600954604051908152f35b3461021c57604036600319011261021c5761159b6117c0565b5060405162461bcd60e51b815260206004820152602f60248201527f566572697461735342543a20536f756c626f756e6420746f6b656e732063616e60448201526e1b9bdd08189948185c1c1c9bdd9959608a1b6064820152608490fd5b3461021c57602036600319011261021c57600435600081815260026020526040902054611630906001600160a01b03161515611a84565b6000526004602052602060018060a01b0360406000205416604051908152f35b3461021c57600036600319011261021c57604051600080546116718161194c565b80845290600190818116908115610752575060011461169a57610506846106e58186038261183b565b600080805292507f290decd9548b62a8d60345a988386fc84ba6bc95484008f6362f93160ef3e5635b8284106116db5750505081016020016106e5826106d5565b805460208587018101919091529093019281016116c3565b3461021c57602036600319011261021c576004359063ffffffff60e01b821680920361021c57602091632483248360e11b8114908115611735575b5015158152f35b6380ac58cd60e01b811491508115611767575b8115611756575b508361172e565b6301ffc9a760e01b1490508361174f565b635b5e139f60e01b81149150611748565b60005b83811061178b5750506000910152565b818101518382015260200161177b565b906020916117b481518092818552858086019101611778565b601f01601f1916010190565b600435906001600160a01b038216820361021c57565b602435906001600160a01b038216820361021c57565b3461021c57606036600319011261021c576001600160a01b036004358181160361021c5760243590811614611d7a57600080fd5b60c081019081106001600160401b0382111761050a57604052565b90601f801991011681019081106001600160401b0382111761050a57604052565b9291926001600160401b03821161050a5760405191611885601f8201601f19166020018461183b565b82948184528183011161021c578281602093846000960137010152565b9080601f8301121561021c578160206118bd9335910161185c565b90565b90604060031983011261021c5760043591602435906001600160401b03821161021c576118bd916004016118a2565b80548210156119075760005260206000200190600090565b634e487b7160e01b600052603260045260246000fd5b604090600319011261021c576004356001600160a01b038116810361021c5790602435801515810361021c5790565b90600182811c9216801561197c575b602083101461196657565b634e487b7160e01b600052602260045260246000fd5b91607f169161195b565b906040519182600082549261199a8461194c565b908184526001948581169081600014611a0957506001146119c6575b50506119c49250038361183b565b565b9093915060005260209081600020936000915b8183106119f15750506119c4935082010138806119b6565b855488840185015294850194879450918301916119d9565b9150506119c494506020925060ff191682840152151560051b82010138806119b6565b6007546001600160a01b03163303611a4057565b606460405162461bcd60e51b815260206004820152602060248201527f4f776e61626c653a2063616c6c6572206973206e6f7420746865206f776e65726044820152fd5b15611a8b57565b60405162461bcd60e51b815260206004820152601860248201527f4552433732313a20696e76616c696420746f6b656e20494400000000000000006044820152606490fd5b6000198114611adf5760010190565b634e487b7160e01b600052601160045260246000fd5b15611afc57565b60405162461bcd60e51b815260206004820152601c60248201527f4552433732313a20746f6b656e20616c7265616479206d696e746564000000006044820152606490fd5b6000818152600260205260409020549192916001600160a01b031615611cd3576000908082526020916006835260408120908551906001600160401b038211611cbf57611b8e835461194c565b601f8111611c7c575b508490601f8311600114611bf857907ff8e1a15aba9398e019f0b49df1a4fde98ee17ae345cb5f6b5e2c27f5033e8ce7969783611bed575b50508160011b916000199060031b1c19161790555b604051908152a1565b015190503880611bcf565b9196601f198816848452868420935b818110611c6557509160019391897ff8e1a15aba9398e019f0b49df1a4fde98ee17ae345cb5f6b5e2c27f5033e8ce7999a9410611c4c575b505050811b019055611be4565b015160001960f88460031b161c19169055388080611c3f565b929387600181928786015181550195019301611c07565b838252858220601f840160051c810191878510611cb5575b601f0160051c01905b818110611caa5750611b97565b828155600101611c9d565b9091508190611c94565b634e487b7160e01b81526041600452602490fd5b60405162461bcd60e51b815260206004820152602e60248201527f45524337323155524953746f726167653a2055524920736574206f66206e6f6e60448201526d32bc34b9ba32b73a103a37b5b2b760911b6064820152608490fd5b15611d3657565b606460405162461bcd60e51b815260206004820152602060248201527f566572697461735342543a20546f6b656e20646f6573206e6f742065786973746044820152fd5b60405162461bcd60e51b815260206004820152603260248201527f566572697461735342543a20536f756c626f756e6420746f6b656e732063616e6044820152711b9bdd081899481d1c985b9cd9995c9c995960721b6064820152608490fdfea2646970667358221220082705f31b45ca79008803559646cb363416c752c2b203f835b84114fc00880064736f6c63430008130033",
  "linkReferences": {},
  "deployedLinkReferences": {}
}